{
  "_format": "hh-sol-artifact-1",
  "contractName": "UPCoin",
  "sourceName": "contracts/UPCoin.sol",
  "abi": [
    {
      "inputs": [
        {
          "internalType": "uint256",
          "name": "initialSupply",
          "type": "uint256"
        }
      ],
      "stateMutability": "nonpayable",
      "type": "constructor"
    },
    {
      "inputs": [
        {
          "internalType": "address",
          "name": "spender",
          "type": "address"
        },
        {
          "internalType": "uint256",
          "name": "allowance",
          "type": "uint256"
        },
        {
          "internalType": "uint256",
          "name": "needed",
          "type": "uint256"
        }
      ],
      "name": "ERC20InsufficientAllowance",
      "type": "error"
    },
    {
      "inputs": [
        {
          "internalType": "address",
          "name": "sender",
          "type": "address"
        },
        {
          "internalType": "uint256",
          "name": "balance",
          "type": "uint256"
        },
        {
          "internalType": "uint256",
          "name": "needed",
          "type": "uint256"
        }
      ],
      "name": "ERC20InsufficientBalance",
      "type": "error"
    },
    {
      "inputs": [
        {
          "internalType": "address",
          "name": "approver",
          "type": "address"
        }
      ],
      "name": "ERC20InvalidApprover",
      "type": "error"
    },
    {
      "inputs": [
        {
          "internalType": "address",
          "name": "receiver",
          "type": "address"
        }
      ],
      "name": "ERC20InvalidReceiver",
      "type": "error"
    },
    {
      "inputs": [
        {
          "internalType": "address",
          "name": "sender",
          "type": "address"
        }
      ],
      "name": "ERC20InvalidSender",
      "type": "error"
    },
    {
      "inputs": [
        {
          "internalType": "address",
          "name": "spender",
          "type": "address"
        }
      ],
      "name": "ERC20InvalidSpender",
      "type": "error"
    },
    {
      "anonymous": false,
      "inputs": [
        {
          "indexed": true,
          "internalType": "address",
          "name": "owner",
          "type": "address"
        },
        {
          "indexed": true,
          "internalType": "address",
          "name": "spender",
          "type": "address"
        },
        {
          "indexed": false,
          "internalType": "uint256",
          "name": "value",
          "type": "uint256"
        }
      ],
      "name": "Approval",
      "type": "event"
    },
    {
      "anonymous": false,
      "inputs": [
        {
          "indexed": true,
          "internalType": "address",
          "name": "from",
          "type": "address"
        },
        {
          "indexed": true,
          "internalType": "address",
          "name": "to",
          "type": "address"
        },
        {
          "indexed": false,
          "internalType": "uint256",
          "name": "value",
          "type": "uint256"
        }
      ],
      "name": "Transfer",
      "type": "event"
    },
    {
      "inputs": [
        {
          "internalType": "address",
          "name": "owner",
          "type": "address"
        },
        {
          "internalType": "address",
          "name": "spender",
          "type": "address"
        }
      ],
      "name": "allowance",
      "outputs": [
        {
          "internalType": "uint256",
          "name": "",
          "type": "uint256"
        }
      ],
      "stateMutability": "view",
      "type": "function"
    },
    {
      "inputs": [
        {
          "internalType": "address",
          "name": "spender",
          "type": "address"
        },
        {
          "internalType": "uint256",
          "name": "value",
          "type": "uint256"
        }
      ],
      "name": "approve",
      "outputs": [
        {
          "internalType": "bool",
          "name": "",
          "type": "bool"
        }
      ],
      "stateMutability": "nonpayable",
      "type": "function"
    },
    {
      "inputs": [
        {
          "internalType": "address",
          "name": "account",
          "type": "address"
        }
      ],
      "name": "balanceOf",
      "outputs": [
        {
          "internalType": "uint256",
          "name": "",
          "type": "uint256"
        }
      ],
      "stateMutability": "view",
      "type": "function"
    },
    {
      "inputs": [],
      "name": "claimTokens",
      "outputs": [],
      "stateMutability": "nonpayable",
      "type": "function"
    },
    {
      "inputs": [],
      "name": "decimals",
      "outputs": [
        {
          "internalType": "uint8",
          "name": "",
          "type": "uint8"
        }
      ],
      "stateMutability": "view",
      "type": "function"
    },
    {
      "inputs": [],
      "name": "name",
      "outputs": [
        {
          "internalType": "string",
          "name": "",
          "type": "string"
        }
      ],
      "stateMutability": "view",
      "type": "function"
    },
    {
      "inputs": [],
      "name": "symbol",
      "outputs": [
        {
          "internalType": "string",
          "name": "",
          "type": "string"
        }
      ],
      "stateMutability": "view",
      "type": "function"
    },
    {
      "inputs": [],
      "name": "totalSupply",
      "outputs": [
        {
          "internalType": "uint256",
          "name": "",
          "type": "uint256"
        }
      ],
      "stateMutability": "view",
      "type": "function"
    },
    {
      "inputs": [
        {
          "internalType": "address",
          "name": "to",
          "type": "address"
        },
        {
          "internalType": "uint256",
          "name": "value",
          "type": "uint256"
        }
      ],
      "name": "transfer",
      "outputs": [
        {
          "internalType": "bool",
          "name": "",
          "type": "bool"
        }
      ],
      "stateMutability": "nonpayable",
      "type": "function"
    },
    {
      "inputs": [
        {
          "internalType": "address",
          "name": "from",
          "type": "address"
        },
        {
          "internalType": "address",
          "name": "to",
          "type": "address"
        },
        {
          "internalType": "uint256",
          "name": "value",
          "type": "uint256"
        }
      ],
      "name": "transferFrom",
      "outputs": [
        {
          "internalType": "bool",
          "name": "",
          "type": "bool"
        }
      ],
      "stateMutability": "nonpayable",
      "type": "function"
    },
    {
      "inputs": [
        {
          "internalType": "address",
          "name": "from",
          "type": "address"
        },
        {
          "internalType": "address",
          "name": "to",
          "type": "address"
        },
        {
          "internalType": "uint256",
          "name": "amount",
          "type": "uint256"
        },
        {
          "internalType": "bytes",
          "name": "signature",
          "type": "bytes"
        }
      ],
      "name": "transferWithSignature",
      "outputs": [],
      "stateMutability": "nonpayable",
      "type": "function"
    }
  ],
  "bytecode": "0x608060405234801561001057600080fd5b50604051611d61380380611d61833981810160405281019061003291906103eb565b6040518060400160405280600681526020017f5550436f696e00000000000000000000000000000000000000000000000000008152506040518060400160405280600381526020017f555043000000000000000000000000000000000000000000000000000000000081525081600390816100ad919061065e565b5080600490816100bd919061065e565b5050506100f4336100d26100fa60201b60201c565b600a6100de919061089f565b836100e991906108ea565b61010360201b60201c565b50610a1d565b60006002905090565b600073ffffffffffffffffffffffffffffffffffffffff168273ffffffffffffffffffffffffffffffffffffffff16036101755760006040517fec442f0500000000000000000000000000000000000000000000000000000000815260040161016c919061096d565b60405180910390fd5b6101876000838361018b60201b60201c565b5050565b600073ffffffffffffffffffffffffffffffffffffffff168373ffffffffffffffffffffffffffffffffffffffff16036101dd5780600260008282546101d19190610988565b925050819055506102b0565b60008060008573ffffffffffffffffffffffffffffffffffffffff1673ffffffffffffffffffffffffffffffffffffffff16815260200190815260200160002054905081811015610269578381836040517fe450d38c000000000000000000000000000000000000000000000000000000008152600401610260939291906109cb565b60405180910390fd5b8181036000808673ffffffffffffffffffffffffffffffffffffffff1673ffffffffffffffffffffffffffffffffffffffff16815260200190815260200160002081905550505b600073ffffffffffffffffffffffffffffffffffffffff168273ffffffffffffffffffffffffffffffffffffffff16036102f95780600260008282540392505081905550610346565b806000808473ffffffffffffffffffffffffffffffffffffffff1673ffffffffffffffffffffffffffffffffffffffff168152602001908152602001600020600082825401925050819055505b8173ffffffffffffffffffffffffffffffffffffffff168373ffffffffffffffffffffffffffffffffffffffff167fddf252ad1be2c89b69c2b068fc378daa952ba7f163c4a11628f55a4df523b3ef836040516103a39190610a02565b60405180910390a3505050565b600080fd5b6000819050919050565b6103c8816103b5565b81146103d357600080fd5b50565b6000815190506103e5816103bf565b92915050565b600060208284031215610401576104006103b0565b5b600061040f848285016103d6565b91505092915050565b600081519050919050565b7f4e487b7100000000000000000000000000000000000000000000000000000000600052604160045260246000fd5b7f4e487b7100000000000000000000000000000000000000000000000000000000600052602260045260246000fd5b6000600282049050600182168061049957607f821691505b6020821081036104ac576104ab610452565b5b50919050565b60008190508160005260206000209050919050565b60006020601f8301049050919050565b600082821b905092915050565b6000600883026105147fffffffffffffffffffffffffffffffffffffffffffffffffffffffffffffffff826104d7565b61051e86836104d7565b95508019841693508086168417925050509392505050565b6000819050919050565b600061055b610556610551846103b5565b610536565b6103b5565b9050919050565b6000819050919050565b61057583610540565b61058961058182610562565b8484546104e4565b825550505050565b600090565b61059e610591565b6105a981848461056c565b505050565b5b818110156105cd576105c2600082610596565b6001810190506105af565b5050565b601f821115610612576105e3816104b2565b6105ec846104c7565b810160208510156105fb578190505b61060f610607856104c7565b8301826105ae565b50505b505050565b600082821c905092915050565b600061063560001984600802610617565b1980831691505092915050565b600061064e8383610624565b9150826002028217905092915050565b61066782610418565b67ffffffffffffffff8111156106805761067f610423565b5b61068a8254610481565b6106958282856105d1565b600060209050601f8311600181146106c857600084156106b6578287015190505b6106c08582610642565b865550610728565b601f1984166106d6866104b2565b60005b828110156106fe578489015182556001820191506020850194506020810190506106d9565b8683101561071b5784890151610717601f891682610624565b8355505b6001600288020188555050505b505050505050565b7f4e487b7100000000000000000000000000000000000000000000000000000000600052601160045260246000fd5b60008160011c9050919050565b6000808291508390505b60018511156107b65780860481111561079257610791610730565b5b60018516156107a15780820291505b80810290506107af8561075f565b9450610776565b94509492505050565b6000826107cf576001905061088b565b816107dd576000905061088b565b81600181146107f357600281146107fd5761082c565b600191505061088b565b60ff84111561080f5761080e610730565b5b8360020a91508482111561082657610825610730565b5b5061088b565b5060208310610133831016604e8410600b84101617156108615782820a90508381111561085c5761085b610730565b5b61088b565b61086e848484600161076c565b9250905081840481111561088557610884610730565b5b81810290505b9392505050565b600060ff82169050919050565b60006108aa826103b5565b91506108b583610892565b92506108e27fffffffffffffffffffffffffffffffffffffffffffffffffffffffffffffffff84846107bf565b905092915050565b60006108f5826103b5565b9150610900836103b5565b925082820261090e816103b5565b9150828204841483151761092557610924610730565b5b5092915050565b600073ffffffffffffffffffffffffffffffffffffffff82169050919050565b60006109578261092c565b9050919050565b6109678161094c565b82525050565b6000602082019050610982600083018461095e565b92915050565b6000610993826103b5565b915061099e836103b5565b92508282019050808211156109b6576109b5610730565b5b92915050565b6109c5816103b5565b82525050565b60006060820190506109e0600083018661095e565b6109ed60208301856109bc565b6109fa60408301846109bc565b949350505050565b6000602082019050610a1760008301846109bc565b92915050565b61133580610a2c6000396000f3fe608060405234801561001057600080fd5b50600436106100a95760003560e01c8063313ce56711610071578063313ce5671461016657806348c54b9d1461018457806370a082311461018e57806395d89b41146101be578063a9059cbb146101dc578063dd62ed3e1461020c576100a9565b806306fdde03146100ae578063095ea7b3146100cc57806318160ddd146100fc57806323b872dd1461011a5780632a8399df1461014a575b600080fd5b6100b661023c565b6040516100c39190610cc4565b60405180910390f35b6100e660048036038101906100e19190610d8e565b6102ce565b6040516100f39190610de9565b60405180910390f35b6101046102f1565b6040516101119190610e13565b60405180910390f35b610134600480360381019061012f9190610e2e565b6102fb565b6040516101419190610de9565b60405180910390f35b610164600480360381019061015f9190610fb6565b61032a565b005b61016e610386565b60405161017b9190611055565b60405180910390f35b61018c61038f565b005b6101a860048036038101906101a39190611070565b610482565b6040516101b59190610e13565b60405180910390f35b6101c66104ca565b6040516101d39190610cc4565b60405180910390f35b6101f660048036038101906101f19190610d8e565b61055c565b6040516102039190610de9565b60405180910390f35b6102266004803603810190610221919061109d565b61057f565b6040516102339190610e13565b60405180910390f35b60606003805461024b9061110c565b80601f01602080910402602001604051908101604052809291908181526020018280546102779061110c565b80156102c45780601f10610299576101008083540402835291602001916102c4565b820191906000526020600020905b8154815290600101906020018083116102a757829003601f168201915b5050505050905090565b6000806102d9610606565b90506102e681858561060e565b600191505092915050565b6000600254905090565b600080610306610606565b9050610313858285610620565b61031e8585856106b4565b60019150509392505050565b610336848484846107a8565b610375576040517f08c379a000000000000000000000000000000000000000000000000000000000815260040161036c90611189565b60405180910390fd5b6103808484846106b4565b50505050565b60006002905090565b600560003373ffffffffffffffffffffffffffffffffffffffff1673ffffffffffffffffffffffffffffffffffffffff16815260200190815260200160002060009054906101000a900460ff161561041c576040517f08c379a00000000000000000000000000000000000000000000000000000000081526004016104139061121b565b60405180910390fd5b6001600560003373ffffffffffffffffffffffffffffffffffffffff1673ffffffffffffffffffffffffffffffffffffffff16815260200190815260200160002060006101000a81548160ff021916908315150217905550610480336127106107b6565b565b60008060008373ffffffffffffffffffffffffffffffffffffffff1673ffffffffffffffffffffffffffffffffffffffff168152602001908152602001600020549050919050565b6060600480546104d99061110c565b80601f01602080910402602001604051908101604052809291908181526020018280546105059061110c565b80156105525780601f1061052757610100808354040283529160200191610552565b820191906000526020600020905b81548152906001019060200180831161053557829003601f168201915b5050505050905090565b600080610567610606565b90506105748185856106b4565b600191505092915050565b6000600160008473ffffffffffffffffffffffffffffffffffffffff1673ffffffffffffffffffffffffffffffffffffffff16815260200190815260200160002060008373ffffffffffffffffffffffffffffffffffffffff1673ffffffffffffffffffffffffffffffffffffffff16815260200190815260200160002054905092915050565b600033905090565b61061b8383836001610838565b505050565b600061062c848461057f565b90507fffffffffffffffffffffffffffffffffffffffffffffffffffffffffffffffff81146106ae578181101561069e578281836040517ffb8f41b20000000000000000000000000000000000000000000000000000000081526004016106959392919061124a565b60405180910390fd5b6106ad84848484036000610838565b5b50505050565b600073ffffffffffffffffffffffffffffffffffffffff168373ffffffffffffffffffffffffffffffffffffffff16036107265760006040517f96c6fd1e00000000000000000000000000000000000000000000000000000000815260040161071d9190611281565b60405180910390fd5b600073ffffffffffffffffffffffffffffffffffffffff168273ffffffffffffffffffffffffffffffffffffffff16036107985760006040517fec442f0500000000000000000000000000000000000000000000000000000000815260040161078f9190611281565b60405180910390fd5b6107a3838383610a0f565b505050565b600060019050949350505050565b600073ffffffffffffffffffffffffffffffffffffffff168273ffffffffffffffffffffffffffffffffffffffff16036108285760006040517fec442f0500000000000000000000000000000000000000000000000000000000815260040161081f9190611281565b60405180910390fd5b61083460008383610a0f565b5050565b600073ffffffffffffffffffffffffffffffffffffffff168473ffffffffffffffffffffffffffffffffffffffff16036108aa5760006040517fe602df050000000000000000000000000000000000000000000000000000000081526004016108a19190611281565b60405180910390fd5b600073ffffffffffffffffffffffffffffffffffffffff168373ffffffffffffffffffffffffffffffffffffffff160361091c5760006040517f94280d620000000000000000000000000000000000000000000000000000000081526004016109139190611281565b60405180910390fd5b81600160008673ffffffffffffffffffffffffffffffffffffffff1673ffffffffffffffffffffffffffffffffffffffff16815260200190815260200160002060008573ffffffffffffffffffffffffffffffffffffffff1673ffffffffffffffffffffffffffffffffffffffff168152602001908152602001600020819055508015610a09578273ffffffffffffffffffffffffffffffffffffffff168473ffffffffffffffffffffffffffffffffffffffff167f8c5be1e5ebec7d5bd14f71427d1e84f3dd0314c0f7b2291e5b200ac8c7c3b92584604051610a009190610e13565b60405180910390a35b50505050565b600073ffffffffffffffffffffffffffffffffffffffff168373ffffffffffffffffffffffffffffffffffffffff1603610a61578060026000828254610a5591906112cb565b92505081905550610b34565b60008060008573ffffffffffffffffffffffffffffffffffffffff1673ffffffffffffffffffffffffffffffffffffffff16815260200190815260200160002054905081811015610aed578381836040517fe450d38c000000000000000000000000000000000000000000000000000000008152600401610ae49392919061124a565b60405180910390fd5b8181036000808673ffffffffffffffffffffffffffffffffffffffff1673ffffffffffffffffffffffffffffffffffffffff16815260200190815260200160002081905550505b600073ffffffffffffffffffffffffffffffffffffffff168273ffffffffffffffffffffffffffffffffffffffff1603610b7d5780600260008282540392505081905550610bca565b806000808473ffffffffffffffffffffffffffffffffffffffff1673ffffffffffffffffffffffffffffffffffffffff168152602001908152602001600020600082825401925050819055505b8173ffffffffffffffffffffffffffffffffffffffff168373ffffffffffffffffffffffffffffffffffffffff167fddf252ad1be2c89b69c2b068fc378daa952ba7f163c4a11628f55a4df523b3ef83604051610c279190610e13565b60405180910390a3505050565b600081519050919050565b600082825260208201905092915050565b60005b83811015610c6e578082015181840152602081019050610c53565b60008484015250505050565b6000601f19601f8301169050919050565b6000610c9682610c34565b610ca08185610c3f565b9350610cb0818560208601610c50565b610cb981610c7a565b840191505092915050565b60006020820190508181036000830152610cde8184610c8b565b905092915050565b6000604051905090565b600080fd5b600080fd5b600073ffffffffffffffffffffffffffffffffffffffff82169050919050565b6000610d2582610cfa565b9050919050565b610d3581610d1a565b8114610d4057600080fd5b50565b600081359050610d5281610d2c565b92915050565b6000819050919050565b610d6b81610d58565b8114610d7657600080fd5b50565b600081359050610d8881610d62565b92915050565b60008060408385031215610da557610da4610cf0565b5b6000610db385828601610d43565b9250506020610dc485828601610d79565b9150509250929050565b60008115159050919050565b610de381610dce565b82525050565b6000602082019050610dfe6000830184610dda565b92915050565b610e0d81610d58565b82525050565b6000602082019050610e286000830184610e04565b92915050565b600080600060608486031215610e4757610e46610cf0565b5b6000610e5586828701610d43565b9350506020610e6686828701610d43565b9250506040610e7786828701610d79565b9150509250925092565b600080fd5b600080fd5b7f4e487b7100000000000000000000000000000000000000000000000000000000600052604160045260246000fd5b610ec382610c7a565b810181811067ffffffffffffffff82111715610ee257610ee1610e8b565b5b80604052505050565b6000610ef5610ce6565b9050610f018282610eba565b919050565b600067ffffffffffffffff821115610f2157610f20610e8b565b5b610f2a82610c7a565b9050602081019050919050565b82818337600083830152505050565b6000610f59610f5484610f06565b610eeb565b905082815260208101848484011115610f7557610f74610e86565b5b610f80848285610f37565b509392505050565b600082601f830112610f9d57610f9c610e81565b5b8135610fad848260208601610f46565b91505092915050565b60008060008060808587031215610fd057610fcf610cf0565b5b6000610fde87828801610d43565b9450506020610fef87828801610d43565b935050604061100087828801610d79565b925050606085013567ffffffffffffffff81111561102157611020610cf5565b5b61102d87828801610f88565b91505092959194509250565b600060ff82169050919050565b61104f81611039565b82525050565b600060208201905061106a6000830184611046565b92915050565b60006020828403121561108657611085610cf0565b5b600061109484828501610d43565b91505092915050565b600080604083850312156110b4576110b3610cf0565b5b60006110c285828601610d43565b92505060206110d385828601610d43565b9150509250929050565b7f4e487b7100000000000000000000000000000000000000000000000000000000600052602260045260246000fd5b6000600282049050600182168061112457607f821691505b602082108103611137576111366110dd565b5b50919050565b7f496e76616c6964207369676e6174757265000000000000000000000000000000600082015250565b6000611173601183610c3f565b915061117e8261113d565b602082019050919050565b600060208201905081810360008301526111a281611166565b9050919050565b7f546f6b656e7320616c726561647920636c61696d65642062792074686973206160008201527f6464726573730000000000000000000000000000000000000000000000000000602082015250565b6000611205602683610c3f565b9150611210826111a9565b604082019050919050565b60006020820190508181036000830152611234816111f8565b9050919050565b61124481610d1a565b82525050565b600060608201905061125f600083018661123b565b61126c6020830185610e04565b6112796040830184610e04565b949350505050565b6000602082019050611296600083018461123b565b92915050565b7f4e487b7100000000000000000000000000000000000000000000000000000000600052601160045260246000fd5b60006112d682610d58565b91506112e183610d58565b92508282019050808211156112f9576112f861129c565b5b9291505056fea26469706673582212201db700cd00d0bccd74103a44af5918c6a950b464f0806437a44e64ea6803f53664736f6c634300081b0033",
  "linkReferences": {},
  "deployedLinkReferences": {}
}