{
  "_format": "hh-sol-artifact-1",
  "contractName": "UPCoin",
  "sourceName": "contracts/UPCoin.sol",
  "abi": [
    {
      "inputs": [
        {
          "internalType": "uint256",
          "name": "initialSupply",
          "type": "uint256"
        },
        {
          "internalType": "address",
          "name": "_relayer",
          "type": "address"
        }
      ],
      "stateMutability": "nonpayable",
      "type": "constructor"
    },
    {
      "inputs": [
        {
          "internalType": "address",
          "name": "spender",
          "type": "address"
        },
        {
          "internalType": "uint256",
          "name": "allowance",
          "type": "uint256"
        },
        {
          "internalType": "uint256",
          "name": "needed",
          "type": "uint256"
        }
      ],
      "name": "ERC20InsufficientAllowance",
      "type": "error"
    },
    {
      "inputs": [
        {
          "internalType": "address",
          "name": "sender",
          "type": "address"
        },
        {
          "internalType": "uint256",
          "name": "balance",
          "type": "uint256"
        },
        {
          "internalType": "uint256",
          "name": "needed",
          "type": "uint256"
        }
      ],
      "name": "ERC20InsufficientBalance",
      "type": "error"
    },
    {
      "inputs": [
        {
          "internalType": "address",
          "name": "approver",
          "type": "address"
        }
      ],
      "name": "ERC20InvalidApprover",
      "type": "error"
    },
    {
      "inputs": [
        {
          "internalType": "address",
          "name": "receiver",
          "type": "address"
        }
      ],
      "name": "ERC20InvalidReceiver",
      "type": "error"
    },
    {
      "inputs": [
        {
          "internalType": "address",
          "name": "sender",
          "type": "address"
        }
      ],
      "name": "ERC20InvalidSender",
      "type": "error"
    },
    {
      "inputs": [
        {
          "internalType": "address",
          "name": "spender",
          "type": "address"
        }
      ],
      "name": "ERC20InvalidSpender",
      "type": "error"
    },
    {
      "anonymous": false,
      "inputs": [
        {
          "indexed": true,
          "internalType": "address",
          "name": "owner",
          "type": "address"
        },
        {
          "indexed": true,
          "internalType": "address",
          "name": "spender",
          "type": "address"
        },
        {
          "indexed": false,
          "internalType": "uint256",
          "name": "value",
          "type": "uint256"
        }
      ],
      "name": "Approval",
      "type": "event"
    },
    {
      "anonymous": false,
      "inputs": [
        {
          "indexed": true,
          "internalType": "address",
          "name": "from",
          "type": "address"
        },
        {
          "indexed": true,
          "internalType": "address",
          "name": "to",
          "type": "address"
        },
        {
          "indexed": false,
          "internalType": "uint256",
          "name": "value",
          "type": "uint256"
        }
      ],
      "name": "Transfer",
      "type": "event"
    },
    {
      "inputs": [
        {
          "internalType": "address",
          "name": "owner",
          "type": "address"
        },
        {
          "internalType": "address",
          "name": "spender",
          "type": "address"
        }
      ],
      "name": "allowance",
      "outputs": [
        {
          "internalType": "uint256",
          "name": "",
          "type": "uint256"
        }
      ],
      "stateMutability": "view",
      "type": "function"
    },
    {
      "inputs": [
        {
          "internalType": "address",
          "name": "spender",
          "type": "address"
        },
        {
          "internalType": "uint256",
          "name": "value",
          "type": "uint256"
        }
      ],
      "name": "approve",
      "outputs": [
        {
          "internalType": "bool",
          "name": "",
          "type": "bool"
        }
      ],
      "stateMutability": "nonpayable",
      "type": "function"
    },
    {
      "inputs": [
        {
          "internalType": "address",
          "name": "account",
          "type": "address"
        }
      ],
      "name": "balanceOf",
      "outputs": [
        {
          "internalType": "uint256",
          "name": "",
          "type": "uint256"
        }
      ],
      "stateMutability": "view",
      "type": "function"
    },
    {
      "inputs": [
        {
          "internalType": "address",
          "name": "user",
          "type": "address"
        }
      ],
      "name": "claimTokens",
      "outputs": [],
      "stateMutability": "nonpayable",
      "type": "function"
    },
    {
      "inputs": [],
      "name": "decimals",
      "outputs": [
        {
          "internalType": "uint8",
          "name": "",
          "type": "uint8"
        }
      ],
      "stateMutability": "view",
      "type": "function"
    },
    {
      "inputs": [
        {
          "internalType": "address",
          "name": "to",
          "type": "address"
        },
        {
          "internalType": "uint256",
          "name": "amount",
          "type": "uint256"
        }
      ],
      "name": "mint",
      "outputs": [],
      "stateMutability": "nonpayable",
      "type": "function"
    },
    {
      "inputs": [],
      "name": "name",
      "outputs": [
        {
          "internalType": "string",
          "name": "",
          "type": "string"
        }
      ],
      "stateMutability": "view",
      "type": "function"
    },
    {
      "inputs": [],
      "name": "relayer",
      "outputs": [
        {
          "internalType": "address",
          "name": "",
          "type": "address"
        }
      ],
      "stateMutability": "view",
      "type": "function"
    },
    {
      "inputs": [],
      "name": "symbol",
      "outputs": [
        {
          "internalType": "string",
          "name": "",
          "type": "string"
        }
      ],
      "stateMutability": "view",
      "type": "function"
    },
    {
      "inputs": [],
      "name": "totalSupply",
      "outputs": [
        {
          "internalType": "uint256",
          "name": "",
          "type": "uint256"
        }
      ],
      "stateMutability": "view",
      "type": "function"
    },
    {
      "inputs": [
        {
          "internalType": "address",
          "name": "to",
          "type": "address"
        },
        {
          "internalType": "uint256",
          "name": "value",
          "type": "uint256"
        }
      ],
      "name": "transfer",
      "outputs": [
        {
          "internalType": "bool",
          "name": "",
          "type": "bool"
        }
      ],
      "stateMutability": "nonpayable",
      "type": "function"
    },
    {
      "inputs": [
        {
          "internalType": "address",
          "name": "from",
          "type": "address"
        },
        {
          "internalType": "address",
          "name": "to",
          "type": "address"
        },
        {
          "internalType": "uint256",
          "name": "value",
          "type": "uint256"
        }
      ],
      "name": "transferFrom",
      "outputs": [
        {
          "internalType": "bool",
          "name": "",
          "type": "bool"
        }
      ],
      "stateMutability": "nonpayable",
      "type": "function"
    },
    {
      "inputs": [
        {
          "internalType": "address",
          "name": "from",
          "type": "address"
        },
        {
          "internalType": "address",
          "name": "to",
          "type": "address"
        },
        {
          "internalType": "uint256",
          "name": "amount",
          "type": "uint256"
        },
        {
          "internalType": "bytes",
          "name": "signature",
          "type": "bytes"
        }
      ],
      "name": "transferWithSignature",
      "outputs": [],
      "stateMutability": "nonpayable",
      "type": "function"
    }
  ],
  "bytecode": "0x608060405234801561001057600080fd5b50604051612490380380612490833981810160405281019061003291906104fa565b6040518060400160405280600681526020017f5550436f696e00000000000000000000000000000000000000000000000000008152506040518060400160405280600381526020017f555043000000000000000000000000000000000000000000000000000000000081525081600390816100ad9190610780565b5080600490816100bd9190610780565b505050600073ffffffffffffffffffffffffffffffffffffffff168173ffffffffffffffffffffffffffffffffffffffff160361012f576040517f08c379a0000000000000000000000000000000000000000000000000000000008152600401610126906108af565b60405180910390fd5b610163336101416101ab60201b60201c565b600a61014d9190610a3e565b846101589190610a89565b6101b460201b60201c565b80600560006101000a81548173ffffffffffffffffffffffffffffffffffffffff021916908373ffffffffffffffffffffffffffffffffffffffff1602179055505050610b8a565b60006002905090565b600073ffffffffffffffffffffffffffffffffffffffff168273ffffffffffffffffffffffffffffffffffffffff16036102265760006040517fec442f0500000000000000000000000000000000000000000000000000000000815260040161021d9190610ada565b60405180910390fd5b6102386000838361023c60201b60201c565b5050565b600073ffffffffffffffffffffffffffffffffffffffff168373ffffffffffffffffffffffffffffffffffffffff160361028e5780600260008282546102829190610af5565b92505081905550610361565b60008060008573ffffffffffffffffffffffffffffffffffffffff1673ffffffffffffffffffffffffffffffffffffffff1681526020019081526020016000205490508181101561031a578381836040517fe450d38c00000000000000000000000000000000000000000000000000000000815260040161031193929190610b38565b60405180910390fd5b8181036000808673ffffffffffffffffffffffffffffffffffffffff1673ffffffffffffffffffffffffffffffffffffffff16815260200190815260200160002081905550505b600073ffffffffffffffffffffffffffffffffffffffff168273ffffffffffffffffffffffffffffffffffffffff16036103aa57806002600082825403925050819055506103f7565b806000808473ffffffffffffffffffffffffffffffffffffffff1673ffffffffffffffffffffffffffffffffffffffff168152602001908152602001600020600082825401925050819055505b8173ffffffffffffffffffffffffffffffffffffffff168373ffffffffffffffffffffffffffffffffffffffff167fddf252ad1be2c89b69c2b068fc378daa952ba7f163c4a11628f55a4df523b3ef836040516104549190610b6f565b60405180910390a3505050565b600080fd5b6000819050919050565b61047981610466565b811461048457600080fd5b50565b60008151905061049681610470565b92915050565b600073ffffffffffffffffffffffffffffffffffffffff82169050919050565b60006104c78261049c565b9050919050565b6104d7816104bc565b81146104e257600080fd5b50565b6000815190506104f4816104ce565b92915050565b6000806040838503121561051157610510610461565b5b600061051f85828601610487565b9250506020610530858286016104e5565b9150509250929050565b600081519050919050565b7f4e487b7100000000000000000000000000000000000000000000000000000000600052604160045260246000fd5b7f4e487b7100000000000000000000000000000000000000000000000000000000600052602260045260246000fd5b600060028204905060018216806105bb57607f821691505b6020821081036105ce576105cd610574565b5b50919050565b60008190508160005260206000209050919050565b60006020601f8301049050919050565b600082821b905092915050565b6000600883026106367fffffffffffffffffffffffffffffffffffffffffffffffffffffffffffffffff826105f9565b61064086836105f9565b95508019841693508086168417925050509392505050565b6000819050919050565b600061067d61067861067384610466565b610658565b610466565b9050919050565b6000819050919050565b61069783610662565b6106ab6106a382610684565b848454610606565b825550505050565b600090565b6106c06106b3565b6106cb81848461068e565b505050565b5b818110156106ef576106e46000826106b8565b6001810190506106d1565b5050565b601f82111561073457610705816105d4565b61070e846105e9565b8101602085101561071d578190505b610731610729856105e9565b8301826106d0565b50505b505050565b600082821c905092915050565b600061075760001984600802610739565b1980831691505092915050565b60006107708383610746565b9150826002028217905092915050565b6107898261053a565b67ffffffffffffffff8111156107a2576107a1610545565b5b6107ac82546105a3565b6107b78282856106f3565b600060209050601f8311600181146107ea57600084156107d8578287015190505b6107e28582610764565b86555061084a565b601f1984166107f8866105d4565b60005b82811015610820578489015182556001820191506020850194506020810190506107fb565b8683101561083d5784890151610839601f891682610746565b8355505b6001600288020188555050505b505050505050565b600082825260208201905092915050565b7f52656c6179657220616464726573732063616e6e6f74206265207a65726f0000600082015250565b6000610899601e83610852565b91506108a482610863565b602082019050919050565b600060208201905081810360008301526108c88161088c565b9050919050565b7f4e487b7100000000000000000000000000000000000000000000000000000000600052601160045260246000fd5b60008160011c9050919050565b6000808291508390505b600185111561095557808604811115610931576109306108cf565b5b60018516156109405780820291505b808102905061094e856108fe565b9450610915565b94509492505050565b60008261096e5760019050610a2a565b8161097c5760009050610a2a565b8160018114610992576002811461099c576109cb565b6001915050610a2a565b60ff8411156109ae576109ad6108cf565b5b8360020a9150848211156109c5576109c46108cf565b5b50610a2a565b5060208310610133831016604e8410600b8410161715610a005782820a9050838111156109fb576109fa6108cf565b5b610a2a565b610a0d848484600161090b565b92509050818404811115610a2457610a236108cf565b5b81810290505b9392505050565b600060ff82169050919050565b6000610a4982610466565b9150610a5483610a31565b9250610a817fffffffffffffffffffffffffffffffffffffffffffffffffffffffffffffffff848461095e565b905092915050565b6000610a9482610466565b9150610a9f83610466565b9250828202610aad81610466565b91508282048414831517610ac457610ac36108cf565b5b5092915050565b610ad4816104bc565b82525050565b6000602082019050610aef6000830184610acb565b92915050565b6000610b0082610466565b9150610b0b83610466565b9250828201905080821115610b2357610b226108cf565b5b92915050565b610b3281610466565b82525050565b6000606082019050610b4d6000830186610acb565b610b5a6020830185610b29565b610b676040830184610b29565b949350505050565b6000602082019050610b846000830184610b29565b92915050565b6118f780610b996000396000f3fe608060405234801561001057600080fd5b50600436106100cf5760003560e01c806340c10f191161008c57806395d89b411161006657806395d89b4114610214578063a9059cbb14610232578063dd62ed3e14610262578063df8de3e714610292576100cf565b806340c10f19146101aa57806370a08231146101c65780638406c079146101f6576100cf565b806306fdde03146100d4578063095ea7b3146100f257806318160ddd1461012257806323b872dd146101405780632a8399df14610170578063313ce5671461018c575b600080fd5b6100dc6102ae565b6040516100e99190610fe6565b60405180910390f35b61010c600480360381019061010791906110b0565b610340565b604051610119919061110b565b60405180910390f35b61012a610363565b6040516101379190611135565b60405180910390f35b61015a60048036038101906101559190611150565b61036d565b604051610167919061110b565b60405180910390f35b61018a600480360381019061018591906112d8565b61039c565b005b6101946103f8565b6040516101a19190611377565b60405180910390f35b6101c460048036038101906101bf91906110b0565b610401565b005b6101e060048036038101906101db9190611392565b61049f565b6040516101ed9190611135565b60405180910390f35b6101fe6104e7565b60405161020b91906113ce565b60405180910390f35b61021c61050d565b6040516102299190610fe6565b60405180910390f35b61024c600480360381019061024791906110b0565b61059f565b604051610259919061110b565b60405180910390f35b61027c600480360381019061027791906113e9565b6105c2565b6040516102899190611135565b60405180910390f35b6102ac60048036038101906102a79190611392565b610649565b005b6060600380546102bd90611458565b80601f01602080910402602001604051908101604052809291908181526020018280546102e990611458565b80156103365780601f1061030b57610100808354040283529160200191610336565b820191906000526020600020905b81548152906001019060200180831161031957829003601f168201915b5050505050905090565b60008061034b6107cd565b90506103588185856107d5565b600191505092915050565b6000600254905090565b6000806103786107cd565b90506103858582856107e7565b61039085858561087b565b60019150509392505050565b6103a88484848461096f565b6103e7576040517f08c379a00000000000000000000000000000000000000000000000000000000081526004016103de906114d5565b60405180910390fd5b6103f284848461087b565b50505050565b60006002905090565b600560009054906101000a900473ffffffffffffffffffffffffffffffffffffffff1673ffffffffffffffffffffffffffffffffffffffff163373ffffffffffffffffffffffffffffffffffffffff1614610491576040517f08c379a000000000000000000000000000000000000000000000000000000000815260040161048890611567565b60405180910390fd5b61049b8282610a70565b5050565b60008060008373ffffffffffffffffffffffffffffffffffffffff1673ffffffffffffffffffffffffffffffffffffffff168152602001908152602001600020549050919050565b600560009054906101000a900473ffffffffffffffffffffffffffffffffffffffff1681565b60606004805461051c90611458565b80601f016020809104026020016040519081016040528092919081815260200182805461054890611458565b80156105955780601f1061056a57610100808354040283529160200191610595565b820191906000526020600020905b81548152906001019060200180831161057857829003601f168201915b5050505050905090565b6000806105aa6107cd565b90506105b781858561087b565b600191505092915050565b6000600160008473ffffffffffffffffffffffffffffffffffffffff1673ffffffffffffffffffffffffffffffffffffffff16815260200190815260200160002060008373ffffffffffffffffffffffffffffffffffffffff1673ffffffffffffffffffffffffffffffffffffffff16815260200190815260200160002054905092915050565b600560009054906101000a900473ffffffffffffffffffffffffffffffffffffffff1673ffffffffffffffffffffffffffffffffffffffff163373ffffffffffffffffffffffffffffffffffffffff16146106d9576040517f08c379a00000000000000000000000000000000000000000000000000000000081526004016106d090611567565b60405180910390fd5b600660008273ffffffffffffffffffffffffffffffffffffffff1673ffffffffffffffffffffffffffffffffffffffff16815260200190815260200160002060009054906101000a900460ff1615610766576040517f08c379a000000000000000000000000000000000000000000000000000000000815260040161075d906115f9565b60405180910390fd5b6001600660008373ffffffffffffffffffffffffffffffffffffffff1673ffffffffffffffffffffffffffffffffffffffff16815260200190815260200160002060006101000a81548160ff0219169083151502179055506107ca81612710610a70565b50565b600033905090565b6107e28383836001610af2565b505050565b60006107f384846105c2565b90507fffffffffffffffffffffffffffffffffffffffffffffffffffffffffffffffff81146108755781811015610865578281836040517ffb8f41b200000000000000000000000000000000000000000000000000000000815260040161085c93929190611619565b60405180910390fd5b61087484848484036000610af2565b5b50505050565b600073ffffffffffffffffffffffffffffffffffffffff168373ffffffffffffffffffffffffffffffffffffffff16036108ed5760006040517f96c6fd1e0000000000000000000000000000000000000000000000000000000081526004016108e491906113ce565b60405180910390fd5b600073ffffffffffffffffffffffffffffffffffffffff168273ffffffffffffffffffffffffffffffffffffffff160361095f5760006040517fec442f0500000000000000000000000000000000000000000000000000000000815260040161095691906113ce565b60405180910390fd5b61096a838383610cc9565b505050565b600080858585604051602001610987939291906116b9565b6040516020818303038152906040528051906020012090506000816040516020016109b29190611778565b60405160208183030381529060405280519060200120905060008060006109d887610eee565b925092509250600060018583868660405160008152602001604052604051610a0394939291906117ad565b6020604051602081039080840390855afa158015610a25573d6000803e3d6000fd5b5050506020604051035190508a73ffffffffffffffffffffffffffffffffffffffff168173ffffffffffffffffffffffffffffffffffffffff16149650505050505050949350505050565b600073ffffffffffffffffffffffffffffffffffffffff168273ffffffffffffffffffffffffffffffffffffffff1603610ae25760006040517fec442f05000000000000000000000000000000000000000000000000000000008152600401610ad991906113ce565b60405180910390fd5b610aee60008383610cc9565b5050565b600073ffffffffffffffffffffffffffffffffffffffff168473ffffffffffffffffffffffffffffffffffffffff1603610b645760006040517fe602df05000000000000000000000000000000000000000000000000000000008152600401610b5b91906113ce565b60405180910390fd5b600073ffffffffffffffffffffffffffffffffffffffff168373ffffffffffffffffffffffffffffffffffffffff1603610bd65760006040517f94280d62000000000000000000000000000000000000000000000000000000008152600401610bcd91906113ce565b60405180910390fd5b81600160008673ffffffffffffffffffffffffffffffffffffffff1673ffffffffffffffffffffffffffffffffffffffff16815260200190815260200160002060008573ffffffffffffffffffffffffffffffffffffffff1673ffffffffffffffffffffffffffffffffffffffff168152602001908152602001600020819055508015610cc3578273ffffffffffffffffffffffffffffffffffffffff168473ffffffffffffffffffffffffffffffffffffffff167f8c5be1e5ebec7d5bd14f71427d1e84f3dd0314c0f7b2291e5b200ac8c7c3b92584604051610cba9190611135565b60405180910390a35b50505050565b600073ffffffffffffffffffffffffffffffffffffffff168373ffffffffffffffffffffffffffffffffffffffff1603610d1b578060026000828254610d0f9190611821565b92505081905550610dee565b60008060008573ffffffffffffffffffffffffffffffffffffffff1673ffffffffffffffffffffffffffffffffffffffff16815260200190815260200160002054905081811015610da7578381836040517fe450d38c000000000000000000000000000000000000000000000000000000008152600401610d9e93929190611619565b60405180910390fd5b8181036000808673ffffffffffffffffffffffffffffffffffffffff1673ffffffffffffffffffffffffffffffffffffffff16815260200190815260200160002081905550505b600073ffffffffffffffffffffffffffffffffffffffff168273ffffffffffffffffffffffffffffffffffffffff1603610e375780600260008282540392505081905550610e84565b806000808473ffffffffffffffffffffffffffffffffffffffff1673ffffffffffffffffffffffffffffffffffffffff168152602001908152602001600020600082825401925050819055505b8173ffffffffffffffffffffffffffffffffffffffff168373ffffffffffffffffffffffffffffffffffffffff167fddf252ad1be2c89b69c2b068fc378daa952ba7f163c4a11628f55a4df523b3ef83604051610ee19190611135565b60405180910390a3505050565b60008060006041845114610f37576040517f08c379a0000000000000000000000000000000000000000000000000000000008152600401610f2e906118a1565b60405180910390fd5b6020840151925060408401519150606084015160001a90509193909250565b600081519050919050565b600082825260208201905092915050565b60005b83811015610f90578082015181840152602081019050610f75565b60008484015250505050565b6000601f19601f8301169050919050565b6000610fb882610f56565b610fc28185610f61565b9350610fd2818560208601610f72565b610fdb81610f9c565b840191505092915050565b600060208201905081810360008301526110008184610fad565b905092915050565b6000604051905090565b600080fd5b600080fd5b600073ffffffffffffffffffffffffffffffffffffffff82169050919050565b60006110478261101c565b9050919050565b6110578161103c565b811461106257600080fd5b50565b6000813590506110748161104e565b92915050565b6000819050919050565b61108d8161107a565b811461109857600080fd5b50565b6000813590506110aa81611084565b92915050565b600080604083850312156110c7576110c6611012565b5b60006110d585828601611065565b92505060206110e68582860161109b565b9150509250929050565b60008115159050919050565b611105816110f0565b82525050565b600060208201905061112060008301846110fc565b92915050565b61112f8161107a565b82525050565b600060208201905061114a6000830184611126565b92915050565b60008060006060848603121561116957611168611012565b5b600061117786828701611065565b935050602061118886828701611065565b92505060406111998682870161109b565b9150509250925092565b600080fd5b600080fd5b7f4e487b7100000000000000000000000000000000000000000000000000000000600052604160045260246000fd5b6111e582610f9c565b810181811067ffffffffffffffff82111715611204576112036111ad565b5b80604052505050565b6000611217611008565b905061122382826111dc565b919050565b600067ffffffffffffffff821115611243576112426111ad565b5b61124c82610f9c565b9050602081019050919050565b82818337600083830152505050565b600061127b61127684611228565b61120d565b905082815260208101848484011115611297576112966111a8565b5b6112a2848285611259565b509392505050565b600082601f8301126112bf576112be6111a3565b5b81356112cf848260208601611268565b91505092915050565b600080600080608085870312156112f2576112f1611012565b5b600061130087828801611065565b945050602061131187828801611065565b93505060406113228782880161109b565b925050606085013567ffffffffffffffff81111561134357611342611017565b5b61134f878288016112aa565b91505092959194509250565b600060ff82169050919050565b6113718161135b565b82525050565b600060208201905061138c6000830184611368565b92915050565b6000602082840312156113a8576113a7611012565b5b60006113b684828501611065565b91505092915050565b6113c88161103c565b82525050565b60006020820190506113e360008301846113bf565b92915050565b60008060408385031215611400576113ff611012565b5b600061140e85828601611065565b925050602061141f85828601611065565b9150509250929050565b7f4e487b7100000000000000000000000000000000000000000000000000000000600052602260045260246000fd5b6000600282049050600182168061147057607f821691505b60208210810361148357611482611429565b5b50919050565b7f496e76616c6964207369676e6174757265000000000000000000000000000000600082015250565b60006114bf601183610f61565b91506114ca82611489565b602082019050919050565b600060208201905081810360008301526114ee816114b2565b9050919050565b7f4f6e6c792052656c617965722063616e2065786563757465207468697320667560008201527f6e6374696f6e0000000000000000000000000000000000000000000000000000602082015250565b6000611551602683610f61565b915061155c826114f5565b604082019050919050565b6000602082019050818103600083015261158081611544565b9050919050565b7f546f6b656e7320616c726561647920636c61696d65642062792074686973206160008201527f6464726573730000000000000000000000000000000000000000000000000000602082015250565b60006115e3602683610f61565b91506115ee82611587565b604082019050919050565b60006020820190508181036000830152611612816115d6565b9050919050565b600060608201905061162e60008301866113bf565b61163b6020830185611126565b6116486040830184611126565b949350505050565b60008160601b9050919050565b600061166882611650565b9050919050565b600061167a8261165d565b9050919050565b61169261168d8261103c565b61166f565b82525050565b6000819050919050565b6116b36116ae8261107a565b611698565b82525050565b60006116c58286611681565b6014820191506116d58285611681565b6014820191506116e582846116a2565b602082019150819050949350505050565b600081905092915050565b7f19457468657265756d205369676e6564204d6573736167653a0a333200000000600082015250565b6000611737601c836116f6565b915061174282611701565b601c82019050919050565b6000819050919050565b6000819050919050565b61177261176d8261174d565b611757565b82525050565b60006117838261172a565b915061178f8284611761565b60208201915081905092915050565b6117a78161174d565b82525050565b60006080820190506117c2600083018761179e565b6117cf6020830186611368565b6117dc604083018561179e565b6117e9606083018461179e565b95945050505050565b7f4e487b7100000000000000000000000000000000000000000000000000000000600052601160045260246000fd5b600061182c8261107a565b91506118378361107a565b925082820190508082111561184f5761184e6117f2565b5b92915050565b7f496e76616c6964207369676e6174757265206c656e6774680000000000000000600082015250565b600061188b601883610f61565b915061189682611855565b602082019050919050565b600060208201905081810360008301526118ba8161187e565b905091905056fea26469706673582212201df6d772ca0f44da5aa10480d45924b1873885d1f0c1fbc37f024b9fe71e5cec64736f6c634300081b0033",
  "linkReferences": {},
  "deployedLinkReferences": {}
}