{
  "_format": "hh-sol-artifact-1",
  "contractName": "UPCoin",
  "sourceName": "contracts/UPCoin.sol",
  "abi": [
    {
      "inputs": [
        {
          "internalType": "uint256",
          "name": "initialSupply",
          "type": "uint256"
        }
      ],
      "stateMutability": "nonpayable",
      "type": "constructor"
    },
    {
      "inputs": [
        {
          "internalType": "address",
          "name": "spender",
          "type": "address"
        },
        {
          "internalType": "uint256",
          "name": "allowance",
          "type": "uint256"
        },
        {
          "internalType": "uint256",
          "name": "needed",
          "type": "uint256"
        }
      ],
      "name": "ERC20InsufficientAllowance",
      "type": "error"
    },
    {
      "inputs": [
        {
          "internalType": "address",
          "name": "sender",
          "type": "address"
        },
        {
          "internalType": "uint256",
          "name": "balance",
          "type": "uint256"
        },
        {
          "internalType": "uint256",
          "name": "needed",
          "type": "uint256"
        }
      ],
      "name": "ERC20InsufficientBalance",
      "type": "error"
    },
    {
      "inputs": [
        {
          "internalType": "address",
          "name": "approver",
          "type": "address"
        }
      ],
      "name": "ERC20InvalidApprover",
      "type": "error"
    },
    {
      "inputs": [
        {
          "internalType": "address",
          "name": "receiver",
          "type": "address"
        }
      ],
      "name": "ERC20InvalidReceiver",
      "type": "error"
    },
    {
      "inputs": [
        {
          "internalType": "address",
          "name": "sender",
          "type": "address"
        }
      ],
      "name": "ERC20InvalidSender",
      "type": "error"
    },
    {
      "inputs": [
        {
          "internalType": "address",
          "name": "spender",
          "type": "address"
        }
      ],
      "name": "ERC20InvalidSpender",
      "type": "error"
    },
    {
      "anonymous": false,
      "inputs": [
        {
          "indexed": true,
          "internalType": "address",
          "name": "owner",
          "type": "address"
        },
        {
          "indexed": true,
          "internalType": "address",
          "name": "spender",
          "type": "address"
        },
        {
          "indexed": false,
          "internalType": "uint256",
          "name": "value",
          "type": "uint256"
        }
      ],
      "name": "Approval",
      "type": "event"
    },
    {
      "anonymous": false,
      "inputs": [
        {
          "indexed": true,
          "internalType": "address",
          "name": "from",
          "type": "address"
        },
        {
          "indexed": true,
          "internalType": "address",
          "name": "to",
          "type": "address"
        },
        {
          "indexed": false,
          "internalType": "uint256",
          "name": "value",
          "type": "uint256"
        }
      ],
      "name": "Transfer",
      "type": "event"
    },
    {
      "inputs": [
        {
          "internalType": "address",
          "name": "owner",
          "type": "address"
        },
        {
          "internalType": "address",
          "name": "spender",
          "type": "address"
        }
      ],
      "name": "allowance",
      "outputs": [
        {
          "internalType": "uint256",
          "name": "",
          "type": "uint256"
        }
      ],
      "stateMutability": "view",
      "type": "function"
    },
    {
      "inputs": [
        {
          "internalType": "address",
          "name": "spender",
          "type": "address"
        },
        {
          "internalType": "uint256",
          "name": "value",
          "type": "uint256"
        }
      ],
      "name": "approve",
      "outputs": [
        {
          "internalType": "bool",
          "name": "",
          "type": "bool"
        }
      ],
      "stateMutability": "nonpayable",
      "type": "function"
    },
    {
      "inputs": [
        {
          "internalType": "address",
          "name": "account",
          "type": "address"
        }
      ],
      "name": "balanceOf",
      "outputs": [
        {
          "internalType": "uint256",
          "name": "",
          "type": "uint256"
        }
      ],
      "stateMutability": "view",
      "type": "function"
    },
    {
      "inputs": [],
      "name": "claimTokens",
      "outputs": [],
      "stateMutability": "nonpayable",
      "type": "function"
    },
    {
      "inputs": [],
      "name": "decimals",
      "outputs": [
        {
          "internalType": "uint8",
          "name": "",
          "type": "uint8"
        }
      ],
      "stateMutability": "view",
      "type": "function"
    },
    {
      "inputs": [
        {
          "internalType": "address",
          "name": "to",
          "type": "address"
        },
        {
          "internalType": "uint256",
          "name": "amount",
          "type": "uint256"
        }
      ],
      "name": "mint",
      "outputs": [],
      "stateMutability": "nonpayable",
      "type": "function"
    },
    {
      "inputs": [],
      "name": "name",
      "outputs": [
        {
          "internalType": "string",
          "name": "",
          "type": "string"
        }
      ],
      "stateMutability": "view",
      "type": "function"
    },
    {
      "inputs": [],
      "name": "relayer",
      "outputs": [
        {
          "internalType": "address",
          "name": "",
          "type": "address"
        }
      ],
      "stateMutability": "view",
      "type": "function"
    },
    {
      "inputs": [
        {
          "internalType": "address",
          "name": "_relayer",
          "type": "address"
        }
      ],
      "name": "setRelayer",
      "outputs": [],
      "stateMutability": "nonpayable",
      "type": "function"
    },
    {
      "inputs": [],
      "name": "symbol",
      "outputs": [
        {
          "internalType": "string",
          "name": "",
          "type": "string"
        }
      ],
      "stateMutability": "view",
      "type": "function"
    },
    {
      "inputs": [],
      "name": "totalSupply",
      "outputs": [
        {
          "internalType": "uint256",
          "name": "",
          "type": "uint256"
        }
      ],
      "stateMutability": "view",
      "type": "function"
    },
    {
      "inputs": [
        {
          "internalType": "address",
          "name": "to",
          "type": "address"
        },
        {
          "internalType": "uint256",
          "name": "value",
          "type": "uint256"
        }
      ],
      "name": "transfer",
      "outputs": [
        {
          "internalType": "bool",
          "name": "",
          "type": "bool"
        }
      ],
      "stateMutability": "nonpayable",
      "type": "function"
    },
    {
      "inputs": [
        {
          "internalType": "address",
          "name": "from",
          "type": "address"
        },
        {
          "internalType": "address",
          "name": "to",
          "type": "address"
        },
        {
          "internalType": "uint256",
          "name": "value",
          "type": "uint256"
        }
      ],
      "name": "transferFrom",
      "outputs": [
        {
          "internalType": "bool",
          "name": "",
          "type": "bool"
        }
      ],
      "stateMutability": "nonpayable",
      "type": "function"
    },
    {
      "inputs": [
        {
          "internalType": "address",
          "name": "from",
          "type": "address"
        },
        {
          "internalType": "address",
          "name": "to",
          "type": "address"
        },
        {
          "internalType": "uint256",
          "name": "amount",
          "type": "uint256"
        },
        {
          "internalType": "bytes",
          "name": "signature",
          "type": "bytes"
        }
      ],
      "name": "transferWithSignature",
      "outputs": [],
      "stateMutability": "nonpayable",
      "type": "function"
    }
  ],
  "bytecode": "0x608060405234801561001057600080fd5b5060405161208f38038061208f833981810160405281019061003291906103eb565b6040518060400160405280600681526020017f5550436f696e00000000000000000000000000000000000000000000000000008152506040518060400160405280600381526020017f555043000000000000000000000000000000000000000000000000000000000081525081600390816100ad919061065e565b5080600490816100bd919061065e565b5050506100f4336100d26100fa60201b60201c565b600a6100de919061089f565b836100e991906108ea565b61010360201b60201c565b50610a1d565b60006002905090565b600073ffffffffffffffffffffffffffffffffffffffff168273ffffffffffffffffffffffffffffffffffffffff16036101755760006040517fec442f0500000000000000000000000000000000000000000000000000000000815260040161016c919061096d565b60405180910390fd5b6101876000838361018b60201b60201c565b5050565b600073ffffffffffffffffffffffffffffffffffffffff168373ffffffffffffffffffffffffffffffffffffffff16036101dd5780600260008282546101d19190610988565b925050819055506102b0565b60008060008573ffffffffffffffffffffffffffffffffffffffff1673ffffffffffffffffffffffffffffffffffffffff16815260200190815260200160002054905081811015610269578381836040517fe450d38c000000000000000000000000000000000000000000000000000000008152600401610260939291906109cb565b60405180910390fd5b8181036000808673ffffffffffffffffffffffffffffffffffffffff1673ffffffffffffffffffffffffffffffffffffffff16815260200190815260200160002081905550505b600073ffffffffffffffffffffffffffffffffffffffff168273ffffffffffffffffffffffffffffffffffffffff16036102f95780600260008282540392505081905550610346565b806000808473ffffffffffffffffffffffffffffffffffffffff1673ffffffffffffffffffffffffffffffffffffffff168152602001908152602001600020600082825401925050819055505b8173ffffffffffffffffffffffffffffffffffffffff168373ffffffffffffffffffffffffffffffffffffffff167fddf252ad1be2c89b69c2b068fc378daa952ba7f163c4a11628f55a4df523b3ef836040516103a39190610a02565b60405180910390a3505050565b600080fd5b6000819050919050565b6103c8816103b5565b81146103d357600080fd5b50565b6000815190506103e5816103bf565b92915050565b600060208284031215610401576104006103b0565b5b600061040f848285016103d6565b91505092915050565b600081519050919050565b7f4e487b7100000000000000000000000000000000000000000000000000000000600052604160045260246000fd5b7f4e487b7100000000000000000000000000000000000000000000000000000000600052602260045260246000fd5b6000600282049050600182168061049957607f821691505b6020821081036104ac576104ab610452565b5b50919050565b60008190508160005260206000209050919050565b60006020601f8301049050919050565b600082821b905092915050565b6000600883026105147fffffffffffffffffffffffffffffffffffffffffffffffffffffffffffffffff826104d7565b61051e86836104d7565b95508019841693508086168417925050509392505050565b6000819050919050565b600061055b610556610551846103b5565b610536565b6103b5565b9050919050565b6000819050919050565b61057583610540565b61058961058182610562565b8484546104e4565b825550505050565b600090565b61059e610591565b6105a981848461056c565b505050565b5b818110156105cd576105c2600082610596565b6001810190506105af565b5050565b601f821115610612576105e3816104b2565b6105ec846104c7565b810160208510156105fb578190505b61060f610607856104c7565b8301826105ae565b50505b505050565b600082821c905092915050565b600061063560001984600802610617565b1980831691505092915050565b600061064e8383610624565b9150826002028217905092915050565b61066782610418565b67ffffffffffffffff8111156106805761067f610423565b5b61068a8254610481565b6106958282856105d1565b600060209050601f8311600181146106c857600084156106b6578287015190505b6106c08582610642565b865550610728565b601f1984166106d6866104b2565b60005b828110156106fe578489015182556001820191506020850194506020810190506106d9565b8683101561071b5784890151610717601f891682610624565b8355505b6001600288020188555050505b505050505050565b7f4e487b7100000000000000000000000000000000000000000000000000000000600052601160045260246000fd5b60008160011c9050919050565b6000808291508390505b60018511156107b65780860481111561079257610791610730565b5b60018516156107a15780820291505b80810290506107af8561075f565b9450610776565b94509492505050565b6000826107cf576001905061088b565b816107dd576000905061088b565b81600181146107f357600281146107fd5761082c565b600191505061088b565b60ff84111561080f5761080e610730565b5b8360020a91508482111561082657610825610730565b5b5061088b565b5060208310610133831016604e8410600b84101617156108615782820a90508381111561085c5761085b610730565b5b61088b565b61086e848484600161076c565b9250905081840481111561088557610884610730565b5b81810290505b9392505050565b600060ff82169050919050565b60006108aa826103b5565b91506108b583610892565b92506108e27fffffffffffffffffffffffffffffffffffffffffffffffffffffffffffffffff84846107bf565b905092915050565b60006108f5826103b5565b9150610900836103b5565b925082820261090e816103b5565b9150828204841483151761092557610924610730565b5b5092915050565b600073ffffffffffffffffffffffffffffffffffffffff82169050919050565b60006109578261092c565b9050919050565b6109678161094c565b82525050565b6000602082019050610982600083018461095e565b92915050565b6000610993826103b5565b915061099e836103b5565b92508282019050808211156109b6576109b5610730565b5b92915050565b6109c5816103b5565b82525050565b60006060820190506109e0600083018661095e565b6109ed60208301856109bc565b6109fa60408301846109bc565b949350505050565b6000602082019050610a1760008301846109bc565b92915050565b61166380610a2c6000396000f3fe608060405234801561001057600080fd5b50600436106100ea5760003560e01c806348c54b9d1161008c5780638406c079116100665780638406c0791461023757806395d89b4114610255578063a9059cbb14610273578063dd62ed3e146102a3576100ea565b806348c54b9d146101e15780636548e9bc146101eb57806370a0823114610207576100ea565b806323b872dd116100c857806323b872dd1461015b5780632a8399df1461018b578063313ce567146101a757806340c10f19146101c5576100ea565b806306fdde03146100ef578063095ea7b31461010d57806318160ddd1461013d575b600080fd5b6100f76102d3565b6040516101049190610ef4565b60405180910390f35b61012760048036038101906101229190610fbe565b610365565b6040516101349190611019565b60405180910390f35b610145610388565b6040516101529190611043565b60405180910390f35b6101756004803603810190610170919061105e565b610392565b6040516101829190611019565b60405180910390f35b6101a560048036038101906101a091906111e6565b6103c1565b005b6101af61041d565b6040516101bc9190611285565b60405180910390f35b6101df60048036038101906101da9190610fbe565b610426565b005b6101e96104c4565b005b610205600480360381019061020091906112a0565b6105b7565b005b610221600480360381019061021c91906112a0565b61068c565b60405161022e9190611043565b60405180910390f35b61023f6106d4565b60405161024c91906112dc565b60405180910390f35b61025d6106fa565b60405161026a9190610ef4565b60405180910390f35b61028d60048036038101906102889190610fbe565b61078c565b60405161029a9190611019565b60405180910390f35b6102bd60048036038101906102b891906112f7565b6107af565b6040516102ca9190611043565b60405180910390f35b6060600380546102e290611366565b80601f016020809104026020016040519081016040528092919081815260200182805461030e90611366565b801561035b5780601f106103305761010080835404028352916020019161035b565b820191906000526020600020905b81548152906001019060200180831161033e57829003601f168201915b5050505050905090565b600080610370610836565b905061037d81858561083e565b600191505092915050565b6000600254905090565b60008061039d610836565b90506103aa858285610850565b6103b58585856108e4565b60019150509392505050565b6103cd848484846109d8565b61040c576040517f08c379a0000000000000000000000000000000000000000000000000000000008152600401610403906113e3565b60405180910390fd5b6104178484846108e4565b50505050565b60006002905090565b600560009054906101000a900473ffffffffffffffffffffffffffffffffffffffff1673ffffffffffffffffffffffffffffffffffffffff163373ffffffffffffffffffffffffffffffffffffffff16146104b6576040517f08c379a00000000000000000000000000000000000000000000000000000000081526004016104ad90611475565b60405180910390fd5b6104c082826109e6565b5050565b600660003373ffffffffffffffffffffffffffffffffffffffff1673ffffffffffffffffffffffffffffffffffffffff16815260200190815260200160002060009054906101000a900460ff1615610551576040517f08c379a000000000000000000000000000000000000000000000000000000000815260040161054890611507565b60405180910390fd5b6001600660003373ffffffffffffffffffffffffffffffffffffffff1673ffffffffffffffffffffffffffffffffffffffff16815260200190815260200160002060006101000a81548160ff0219169083151502179055506105b5336127106109e6565b565b600073ffffffffffffffffffffffffffffffffffffffff16600560009054906101000a900473ffffffffffffffffffffffffffffffffffffffff1673ffffffffffffffffffffffffffffffffffffffff1614610648576040517f08c379a000000000000000000000000000000000000000000000000000000000815260040161063f90611573565b60405180910390fd5b80600560006101000a81548173ffffffffffffffffffffffffffffffffffffffff021916908373ffffffffffffffffffffffffffffffffffffffff16021790555050565b60008060008373ffffffffffffffffffffffffffffffffffffffff1673ffffffffffffffffffffffffffffffffffffffff168152602001908152602001600020549050919050565b600560009054906101000a900473ffffffffffffffffffffffffffffffffffffffff1681565b60606004805461070990611366565b80601f016020809104026020016040519081016040528092919081815260200182805461073590611366565b80156107825780601f1061075757610100808354040283529160200191610782565b820191906000526020600020905b81548152906001019060200180831161076557829003601f168201915b5050505050905090565b600080610797610836565b90506107a48185856108e4565b600191505092915050565b6000600160008473ffffffffffffffffffffffffffffffffffffffff1673ffffffffffffffffffffffffffffffffffffffff16815260200190815260200160002060008373ffffffffffffffffffffffffffffffffffffffff1673ffffffffffffffffffffffffffffffffffffffff16815260200190815260200160002054905092915050565b600033905090565b61084b8383836001610a68565b505050565b600061085c84846107af565b90507fffffffffffffffffffffffffffffffffffffffffffffffffffffffffffffffff81146108de57818110156108ce578281836040517ffb8f41b20000000000000000000000000000000000000000000000000000000081526004016108c593929190611593565b60405180910390fd5b6108dd84848484036000610a68565b5b50505050565b600073ffffffffffffffffffffffffffffffffffffffff168373ffffffffffffffffffffffffffffffffffffffff16036109565760006040517f96c6fd1e00000000000000000000000000000000000000000000000000000000815260040161094d91906112dc565b60405180910390fd5b600073ffffffffffffffffffffffffffffffffffffffff168273ffffffffffffffffffffffffffffffffffffffff16036109c85760006040517fec442f050000000000000000000000000000000000000000000000000000000081526004016109bf91906112dc565b60405180910390fd5b6109d3838383610c3f565b505050565b600060019050949350505050565b600073ffffffffffffffffffffffffffffffffffffffff168273ffffffffffffffffffffffffffffffffffffffff1603610a585760006040517fec442f05000000000000000000000000000000000000000000000000000000008152600401610a4f91906112dc565b60405180910390fd5b610a6460008383610c3f565b5050565b600073ffffffffffffffffffffffffffffffffffffffff168473ffffffffffffffffffffffffffffffffffffffff1603610ada5760006040517fe602df05000000000000000000000000000000000000000000000000000000008152600401610ad191906112dc565b60405180910390fd5b600073ffffffffffffffffffffffffffffffffffffffff168373ffffffffffffffffffffffffffffffffffffffff1603610b4c5760006040517f94280d62000000000000000000000000000000000000000000000000000000008152600401610b4391906112dc565b60405180910390fd5b81600160008673ffffffffffffffffffffffffffffffffffffffff1673ffffffffffffffffffffffffffffffffffffffff16815260200190815260200160002060008573ffffffffffffffffffffffffffffffffffffffff1673ffffffffffffffffffffffffffffffffffffffff168152602001908152602001600020819055508015610c39578273ffffffffffffffffffffffffffffffffffffffff168473ffffffffffffffffffffffffffffffffffffffff167f8c5be1e5ebec7d5bd14f71427d1e84f3dd0314c0f7b2291e5b200ac8c7c3b92584604051610c309190611043565b60405180910390a35b50505050565b600073ffffffffffffffffffffffffffffffffffffffff168373ffffffffffffffffffffffffffffffffffffffff1603610c91578060026000828254610c8591906115f9565b92505081905550610d64565b60008060008573ffffffffffffffffffffffffffffffffffffffff1673ffffffffffffffffffffffffffffffffffffffff16815260200190815260200160002054905081811015610d1d578381836040517fe450d38c000000000000000000000000000000000000000000000000000000008152600401610d1493929190611593565b60405180910390fd5b8181036000808673ffffffffffffffffffffffffffffffffffffffff1673ffffffffffffffffffffffffffffffffffffffff16815260200190815260200160002081905550505b600073ffffffffffffffffffffffffffffffffffffffff168273ffffffffffffffffffffffffffffffffffffffff1603610dad5780600260008282540392505081905550610dfa565b806000808473ffffffffffffffffffffffffffffffffffffffff1673ffffffffffffffffffffffffffffffffffffffff168152602001908152602001600020600082825401925050819055505b8173ffffffffffffffffffffffffffffffffffffffff168373ffffffffffffffffffffffffffffffffffffffff167fddf252ad1be2c89b69c2b068fc378daa952ba7f163c4a11628f55a4df523b3ef83604051610e579190611043565b60405180910390a3505050565b600081519050919050565b600082825260208201905092915050565b60005b83811015610e9e578082015181840152602081019050610e83565b60008484015250505050565b6000601f19601f8301169050919050565b6000610ec682610e64565b610ed08185610e6f565b9350610ee0818560208601610e80565b610ee981610eaa565b840191505092915050565b60006020820190508181036000830152610f0e8184610ebb565b905092915050565b6000604051905090565b600080fd5b600080fd5b600073ffffffffffffffffffffffffffffffffffffffff82169050919050565b6000610f5582610f2a565b9050919050565b610f6581610f4a565b8114610f7057600080fd5b50565b600081359050610f8281610f5c565b92915050565b6000819050919050565b610f9b81610f88565b8114610fa657600080fd5b50565b600081359050610fb881610f92565b92915050565b60008060408385031215610fd557610fd4610f20565b5b6000610fe385828601610f73565b9250506020610ff485828601610fa9565b9150509250929050565b60008115159050919050565b61101381610ffe565b82525050565b600060208201905061102e600083018461100a565b92915050565b61103d81610f88565b82525050565b60006020820190506110586000830184611034565b92915050565b60008060006060848603121561107757611076610f20565b5b600061108586828701610f73565b935050602061109686828701610f73565b92505060406110a786828701610fa9565b9150509250925092565b600080fd5b600080fd5b7f4e487b7100000000000000000000000000000000000000000000000000000000600052604160045260246000fd5b6110f382610eaa565b810181811067ffffffffffffffff82111715611112576111116110bb565b5b80604052505050565b6000611125610f16565b905061113182826110ea565b919050565b600067ffffffffffffffff821115611151576111506110bb565b5b61115a82610eaa565b9050602081019050919050565b82818337600083830152505050565b600061118961118484611136565b61111b565b9050828152602081018484840111156111a5576111a46110b6565b5b6111b0848285611167565b509392505050565b600082601f8301126111cd576111cc6110b1565b5b81356111dd848260208601611176565b91505092915050565b60008060008060808587031215611200576111ff610f20565b5b600061120e87828801610f73565b945050602061121f87828801610f73565b935050604061123087828801610fa9565b925050606085013567ffffffffffffffff81111561125157611250610f25565b5b61125d878288016111b8565b91505092959194509250565b600060ff82169050919050565b61127f81611269565b82525050565b600060208201905061129a6000830184611276565b92915050565b6000602082840312156112b6576112b5610f20565b5b60006112c484828501610f73565b91505092915050565b6112d681610f4a565b82525050565b60006020820190506112f160008301846112cd565b92915050565b6000806040838503121561130e5761130d610f20565b5b600061131c85828601610f73565b925050602061132d85828601610f73565b9150509250929050565b7f4e487b7100000000000000000000000000000000000000000000000000000000600052602260045260246000fd5b6000600282049050600182168061137e57607f821691505b60208210810361139157611390611337565b5b50919050565b7f496e76616c6964207369676e6174757265000000000000000000000000000000600082015250565b60006113cd601183610e6f565b91506113d882611397565b602082019050919050565b600060208201905081810360008301526113fc816113c0565b9050919050565b7f4f6e6c792052656c617965722063616e2065786563757465207468697320667560008201527f6e6374696f6e0000000000000000000000000000000000000000000000000000602082015250565b600061145f602683610e6f565b915061146a82611403565b604082019050919050565b6000602082019050818103600083015261148e81611452565b9050919050565b7f546f6b656e7320616c726561647920636c61696d65642062792074686973206160008201527f6464726573730000000000000000000000000000000000000000000000000000602082015250565b60006114f1602683610e6f565b91506114fc82611495565b604082019050919050565b60006020820190508181036000830152611520816114e4565b9050919050565b7f52656c6179657220697320616c72656164792073657400000000000000000000600082015250565b600061155d601683610e6f565b915061156882611527565b602082019050919050565b6000602082019050818103600083015261158c81611550565b9050919050565b60006060820190506115a860008301866112cd565b6115b56020830185611034565b6115c26040830184611034565b949350505050565b7f4e487b7100000000000000000000000000000000000000000000000000000000600052601160045260246000fd5b600061160482610f88565b915061160f83610f88565b9250828201905080821115611627576116266115ca565b5b9291505056fea26469706673582212203abec45c7fe7248947c28c02af93f1df2412444f7bc16621117c25e8fcc9f2e264736f6c634300081b0033",
  "linkReferences": {},
  "deployedLinkReferences": {}
}