{
  "_format": "hh-sol-artifact-1",
  "contractName": "UPCoin",
  "sourceName": "contracts/UPCoin.sol",
  "abi": [
    {
      "inputs": [
        {
          "internalType": "uint256",
          "name": "initialSupply",
          "type": "uint256"
        }
      ],
      "stateMutability": "nonpayable",
      "type": "constructor"
    },
    {
      "inputs": [
        {
          "internalType": "address",
          "name": "spender",
          "type": "address"
        },
        {
          "internalType": "uint256",
          "name": "allowance",
          "type": "uint256"
        },
        {
          "internalType": "uint256",
          "name": "needed",
          "type": "uint256"
        }
      ],
      "name": "ERC20InsufficientAllowance",
      "type": "error"
    },
    {
      "inputs": [
        {
          "internalType": "address",
          "name": "sender",
          "type": "address"
        },
        {
          "internalType": "uint256",
          "name": "balance",
          "type": "uint256"
        },
        {
          "internalType": "uint256",
          "name": "needed",
          "type": "uint256"
        }
      ],
      "name": "ERC20InsufficientBalance",
      "type": "error"
    },
    {
      "inputs": [
        {
          "internalType": "address",
          "name": "approver",
          "type": "address"
        }
      ],
      "name": "ERC20InvalidApprover",
      "type": "error"
    },
    {
      "inputs": [
        {
          "internalType": "address",
          "name": "receiver",
          "type": "address"
        }
      ],
      "name": "ERC20InvalidReceiver",
      "type": "error"
    },
    {
      "inputs": [
        {
          "internalType": "address",
          "name": "sender",
          "type": "address"
        }
      ],
      "name": "ERC20InvalidSender",
      "type": "error"
    },
    {
      "inputs": [
        {
          "internalType": "address",
          "name": "spender",
          "type": "address"
        }
      ],
      "name": "ERC20InvalidSpender",
      "type": "error"
    },
    {
      "anonymous": false,
      "inputs": [
        {
          "indexed": true,
          "internalType": "address",
          "name": "owner",
          "type": "address"
        },
        {
          "indexed": true,
          "internalType": "address",
          "name": "spender",
          "type": "address"
        },
        {
          "indexed": false,
          "internalType": "uint256",
          "name": "value",
          "type": "uint256"
        }
      ],
      "name": "Approval",
      "type": "event"
    },
    {
      "anonymous": false,
      "inputs": [
        {
          "indexed": true,
          "internalType": "address",
          "name": "from",
          "type": "address"
        },
        {
          "indexed": true,
          "internalType": "address",
          "name": "to",
          "type": "address"
        },
        {
          "indexed": false,
          "internalType": "uint256",
          "name": "value",
          "type": "uint256"
        }
      ],
      "name": "Transfer",
      "type": "event"
    },
    {
      "inputs": [
        {
          "internalType": "address",
          "name": "owner",
          "type": "address"
        },
        {
          "internalType": "address",
          "name": "spender",
          "type": "address"
        }
      ],
      "name": "allowance",
      "outputs": [
        {
          "internalType": "uint256",
          "name": "",
          "type": "uint256"
        }
      ],
      "stateMutability": "view",
      "type": "function"
    },
    {
      "inputs": [
        {
          "internalType": "address",
          "name": "spender",
          "type": "address"
        },
        {
          "internalType": "uint256",
          "name": "value",
          "type": "uint256"
        }
      ],
      "name": "approve",
      "outputs": [
        {
          "internalType": "bool",
          "name": "",
          "type": "bool"
        }
      ],
      "stateMutability": "nonpayable",
      "type": "function"
    },
    {
      "inputs": [
        {
          "internalType": "address",
          "name": "account",
          "type": "address"
        }
      ],
      "name": "balanceOf",
      "outputs": [
        {
          "internalType": "uint256",
          "name": "",
          "type": "uint256"
        }
      ],
      "stateMutability": "view",
      "type": "function"
    },
    {
      "inputs": [
        {
          "internalType": "address",
          "name": "user",
          "type": "address"
        }
      ],
      "name": "claimTokens",
      "outputs": [],
      "stateMutability": "nonpayable",
      "type": "function"
    },
    {
      "inputs": [],
      "name": "decimals",
      "outputs": [
        {
          "internalType": "uint8",
          "name": "",
          "type": "uint8"
        }
      ],
      "stateMutability": "view",
      "type": "function"
    },
    {
      "inputs": [
        {
          "internalType": "address",
          "name": "to",
          "type": "address"
        },
        {
          "internalType": "uint256",
          "name": "amount",
          "type": "uint256"
        }
      ],
      "name": "mint",
      "outputs": [],
      "stateMutability": "nonpayable",
      "type": "function"
    },
    {
      "inputs": [],
      "name": "name",
      "outputs": [
        {
          "internalType": "string",
          "name": "",
          "type": "string"
        }
      ],
      "stateMutability": "view",
      "type": "function"
    },
    {
      "inputs": [],
      "name": "relayer",
      "outputs": [
        {
          "internalType": "address",
          "name": "",
          "type": "address"
        }
      ],
      "stateMutability": "view",
      "type": "function"
    },
    {
      "inputs": [
        {
          "internalType": "address",
          "name": "_relayer",
          "type": "address"
        }
      ],
      "name": "setRelayer",
      "outputs": [],
      "stateMutability": "nonpayable",
      "type": "function"
    },
    {
      "inputs": [],
      "name": "symbol",
      "outputs": [
        {
          "internalType": "string",
          "name": "",
          "type": "string"
        }
      ],
      "stateMutability": "view",
      "type": "function"
    },
    {
      "inputs": [],
      "name": "totalSupply",
      "outputs": [
        {
          "internalType": "uint256",
          "name": "",
          "type": "uint256"
        }
      ],
      "stateMutability": "view",
      "type": "function"
    },
    {
      "inputs": [
        {
          "internalType": "address",
          "name": "to",
          "type": "address"
        },
        {
          "internalType": "uint256",
          "name": "value",
          "type": "uint256"
        }
      ],
      "name": "transfer",
      "outputs": [
        {
          "internalType": "bool",
          "name": "",
          "type": "bool"
        }
      ],
      "stateMutability": "nonpayable",
      "type": "function"
    },
    {
      "inputs": [
        {
          "internalType": "address",
          "name": "from",
          "type": "address"
        },
        {
          "internalType": "address",
          "name": "to",
          "type": "address"
        },
        {
          "internalType": "uint256",
          "name": "value",
          "type": "uint256"
        }
      ],
      "name": "transferFrom",
      "outputs": [
        {
          "internalType": "bool",
          "name": "",
          "type": "bool"
        }
      ],
      "stateMutability": "nonpayable",
      "type": "function"
    },
    {
      "inputs": [
        {
          "internalType": "address",
          "name": "from",
          "type": "address"
        },
        {
          "internalType": "address",
          "name": "to",
          "type": "address"
        },
        {
          "internalType": "uint256",
          "name": "amount",
          "type": "uint256"
        },
        {
          "internalType": "bytes",
          "name": "signature",
          "type": "bytes"
        }
      ],
      "name": "transferWithSignature",
      "outputs": [],
      "stateMutability": "nonpayable",
      "type": "function"
    }
  ],
  "bytecode": "0x608060405234801561001057600080fd5b5060405161249b38038061249b833981810160405281019061003291906103eb565b6040518060400160405280600681526020017f5550436f696e00000000000000000000000000000000000000000000000000008152506040518060400160405280600381526020017f555043000000000000000000000000000000000000000000000000000000000081525081600390816100ad919061065e565b5080600490816100bd919061065e565b5050506100f4336100d26100fa60201b60201c565b600a6100de919061089f565b836100e991906108ea565b61010360201b60201c565b50610a1d565b60006002905090565b600073ffffffffffffffffffffffffffffffffffffffff168273ffffffffffffffffffffffffffffffffffffffff16036101755760006040517fec442f0500000000000000000000000000000000000000000000000000000000815260040161016c919061096d565b60405180910390fd5b6101876000838361018b60201b60201c565b5050565b600073ffffffffffffffffffffffffffffffffffffffff168373ffffffffffffffffffffffffffffffffffffffff16036101dd5780600260008282546101d19190610988565b925050819055506102b0565b60008060008573ffffffffffffffffffffffffffffffffffffffff1673ffffffffffffffffffffffffffffffffffffffff16815260200190815260200160002054905081811015610269578381836040517fe450d38c000000000000000000000000000000000000000000000000000000008152600401610260939291906109cb565b60405180910390fd5b8181036000808673ffffffffffffffffffffffffffffffffffffffff1673ffffffffffffffffffffffffffffffffffffffff16815260200190815260200160002081905550505b600073ffffffffffffffffffffffffffffffffffffffff168273ffffffffffffffffffffffffffffffffffffffff16036102f95780600260008282540392505081905550610346565b806000808473ffffffffffffffffffffffffffffffffffffffff1673ffffffffffffffffffffffffffffffffffffffff168152602001908152602001600020600082825401925050819055505b8173ffffffffffffffffffffffffffffffffffffffff168373ffffffffffffffffffffffffffffffffffffffff167fddf252ad1be2c89b69c2b068fc378daa952ba7f163c4a11628f55a4df523b3ef836040516103a39190610a02565b60405180910390a3505050565b600080fd5b6000819050919050565b6103c8816103b5565b81146103d357600080fd5b50565b6000815190506103e5816103bf565b92915050565b600060208284031215610401576104006103b0565b5b600061040f848285016103d6565b91505092915050565b600081519050919050565b7f4e487b7100000000000000000000000000000000000000000000000000000000600052604160045260246000fd5b7f4e487b7100000000000000000000000000000000000000000000000000000000600052602260045260246000fd5b6000600282049050600182168061049957607f821691505b6020821081036104ac576104ab610452565b5b50919050565b60008190508160005260206000209050919050565b60006020601f8301049050919050565b600082821b905092915050565b6000600883026105147fffffffffffffffffffffffffffffffffffffffffffffffffffffffffffffffff826104d7565b61051e86836104d7565b95508019841693508086168417925050509392505050565b6000819050919050565b600061055b610556610551846103b5565b610536565b6103b5565b9050919050565b6000819050919050565b61057583610540565b61058961058182610562565b8484546104e4565b825550505050565b600090565b61059e610591565b6105a981848461056c565b505050565b5b818110156105cd576105c2600082610596565b6001810190506105af565b5050565b601f821115610612576105e3816104b2565b6105ec846104c7565b810160208510156105fb578190505b61060f610607856104c7565b8301826105ae565b50505b505050565b600082821c905092915050565b600061063560001984600802610617565b1980831691505092915050565b600061064e8383610624565b9150826002028217905092915050565b61066782610418565b67ffffffffffffffff8111156106805761067f610423565b5b61068a8254610481565b6106958282856105d1565b600060209050601f8311600181146106c857600084156106b6578287015190505b6106c08582610642565b865550610728565b601f1984166106d6866104b2565b60005b828110156106fe578489015182556001820191506020850194506020810190506106d9565b8683101561071b5784890151610717601f891682610624565b8355505b6001600288020188555050505b505050505050565b7f4e487b7100000000000000000000000000000000000000000000000000000000600052601160045260246000fd5b60008160011c9050919050565b6000808291508390505b60018511156107b65780860481111561079257610791610730565b5b60018516156107a15780820291505b80810290506107af8561075f565b9450610776565b94509492505050565b6000826107cf576001905061088b565b816107dd576000905061088b565b81600181146107f357600281146107fd5761082c565b600191505061088b565b60ff84111561080f5761080e610730565b5b8360020a91508482111561082657610825610730565b5b5061088b565b5060208310610133831016604e8410600b84101617156108615782820a90508381111561085c5761085b610730565b5b61088b565b61086e848484600161076c565b9250905081840481111561088557610884610730565b5b81810290505b9392505050565b600060ff82169050919050565b60006108aa826103b5565b91506108b583610892565b92506108e27fffffffffffffffffffffffffffffffffffffffffffffffffffffffffffffffff84846107bf565b905092915050565b60006108f5826103b5565b9150610900836103b5565b925082820261090e816103b5565b9150828204841483151761092557610924610730565b5b5092915050565b600073ffffffffffffffffffffffffffffffffffffffff82169050919050565b60006109578261092c565b9050919050565b6109678161094c565b82525050565b6000602082019050610982600083018461095e565b92915050565b6000610993826103b5565b915061099e836103b5565b92508282019050808211156109b6576109b5610730565b5b92915050565b6109c5816103b5565b82525050565b60006060820190506109e0600083018661095e565b6109ed60208301856109bc565b6109fa60408301846109bc565b949350505050565b6000602082019050610a1760008301846109bc565b92915050565b611a6f80610a2c6000396000f3fe608060405234801561001057600080fd5b50600436106100ea5760003560e01c80636548e9bc1161008c57806395d89b411161006657806395d89b411461024b578063a9059cbb14610269578063dd62ed3e14610299578063df8de3e7146102c9576100ea565b80636548e9bc146101e157806370a08231146101fd5780638406c0791461022d576100ea565b806323b872dd116100c857806323b872dd1461015b5780632a8399df1461018b578063313ce567146101a757806340c10f19146101c5576100ea565b806306fdde03146100ef578063095ea7b31461010d57806318160ddd1461013d575b600080fd5b6100f76102e5565b60405161010491906110f2565b60405180910390f35b610127600480360381019061012291906111bc565b610377565b6040516101349190611217565b60405180910390f35b61014561039a565b6040516101529190611241565b60405180910390f35b6101756004803603810190610170919061125c565b6103a4565b6040516101829190611217565b60405180910390f35b6101a560048036038101906101a091906113e4565b6103d3565b005b6101af61042f565b6040516101bc9190611483565b60405180910390f35b6101df60048036038101906101da91906111bc565b610438565b005b6101fb60048036038101906101f6919061149e565b6104d6565b005b6102176004803603810190610212919061149e565b6105ab565b6040516102249190611241565b60405180910390f35b6102356105f3565b60405161024291906114da565b60405180910390f35b610253610619565b60405161026091906110f2565b60405180910390f35b610283600480360381019061027e91906111bc565b6106ab565b6040516102909190611217565b60405180910390f35b6102b360048036038101906102ae91906114f5565b6106ce565b6040516102c09190611241565b60405180910390f35b6102e360048036038101906102de919061149e565b610755565b005b6060600380546102f490611564565b80601f016020809104026020016040519081016040528092919081815260200182805461032090611564565b801561036d5780601f106103425761010080835404028352916020019161036d565b820191906000526020600020905b81548152906001019060200180831161035057829003601f168201915b5050505050905090565b6000806103826108d9565b905061038f8185856108e1565b600191505092915050565b6000600254905090565b6000806103af6108d9565b90506103bc8582856108f3565b6103c7858585610987565b60019150509392505050565b6103df84848484610a7b565b61041e576040517f08c379a0000000000000000000000000000000000000000000000000000000008152600401610415906115e1565b60405180910390fd5b610429848484610987565b50505050565b60006002905090565b600560009054906101000a900473ffffffffffffffffffffffffffffffffffffffff1673ffffffffffffffffffffffffffffffffffffffff163373ffffffffffffffffffffffffffffffffffffffff16146104c8576040517f08c379a00000000000000000000000000000000000000000000000000000000081526004016104bf90611673565b60405180910390fd5b6104d28282610b7c565b5050565b600073ffffffffffffffffffffffffffffffffffffffff16600560009054906101000a900473ffffffffffffffffffffffffffffffffffffffff1673ffffffffffffffffffffffffffffffffffffffff1614610567576040517f08c379a000000000000000000000000000000000000000000000000000000000815260040161055e906116df565b60405180910390fd5b80600560006101000a81548173ffffffffffffffffffffffffffffffffffffffff021916908373ffffffffffffffffffffffffffffffffffffffff16021790555050565b60008060008373ffffffffffffffffffffffffffffffffffffffff1673ffffffffffffffffffffffffffffffffffffffff168152602001908152602001600020549050919050565b600560009054906101000a900473ffffffffffffffffffffffffffffffffffffffff1681565b60606004805461062890611564565b80601f016020809104026020016040519081016040528092919081815260200182805461065490611564565b80156106a15780601f10610676576101008083540402835291602001916106a1565b820191906000526020600020905b81548152906001019060200180831161068457829003601f168201915b5050505050905090565b6000806106b66108d9565b90506106c3818585610987565b600191505092915050565b6000600160008473ffffffffffffffffffffffffffffffffffffffff1673ffffffffffffffffffffffffffffffffffffffff16815260200190815260200160002060008373ffffffffffffffffffffffffffffffffffffffff1673ffffffffffffffffffffffffffffffffffffffff16815260200190815260200160002054905092915050565b600560009054906101000a900473ffffffffffffffffffffffffffffffffffffffff1673ffffffffffffffffffffffffffffffffffffffff163373ffffffffffffffffffffffffffffffffffffffff16146107e5576040517f08c379a00000000000000000000000000000000000000000000000000000000081526004016107dc90611673565b60405180910390fd5b600660008273ffffffffffffffffffffffffffffffffffffffff1673ffffffffffffffffffffffffffffffffffffffff16815260200190815260200160002060009054906101000a900460ff1615610872576040517f08c379a000000000000000000000000000000000000000000000000000000000815260040161086990611771565b60405180910390fd5b6001600660008373ffffffffffffffffffffffffffffffffffffffff1673ffffffffffffffffffffffffffffffffffffffff16815260200190815260200160002060006101000a81548160ff0219169083151502179055506108d681612710610b7c565b50565b600033905090565b6108ee8383836001610bfe565b505050565b60006108ff84846106ce565b90507fffffffffffffffffffffffffffffffffffffffffffffffffffffffffffffffff81146109815781811015610971578281836040517ffb8f41b200000000000000000000000000000000000000000000000000000000815260040161096893929190611791565b60405180910390fd5b61098084848484036000610bfe565b5b50505050565b600073ffffffffffffffffffffffffffffffffffffffff168373ffffffffffffffffffffffffffffffffffffffff16036109f95760006040517f96c6fd1e0000000000000000000000000000000000000000000000000000000081526004016109f091906114da565b60405180910390fd5b600073ffffffffffffffffffffffffffffffffffffffff168273ffffffffffffffffffffffffffffffffffffffff1603610a6b5760006040517fec442f05000000000000000000000000000000000000000000000000000000008152600401610a6291906114da565b60405180910390fd5b610a76838383610dd5565b505050565b600080858585604051602001610a9393929190611831565b604051602081830303815290604052805190602001209050600081604051602001610abe91906118f0565b6040516020818303038152906040528051906020012090506000806000610ae487610ffa565b925092509250600060018583868660405160008152602001604052604051610b0f9493929190611925565b6020604051602081039080840390855afa158015610b31573d6000803e3d6000fd5b5050506020604051035190508a73ffffffffffffffffffffffffffffffffffffffff168173ffffffffffffffffffffffffffffffffffffffff16149650505050505050949350505050565b600073ffffffffffffffffffffffffffffffffffffffff168273ffffffffffffffffffffffffffffffffffffffff1603610bee5760006040517fec442f05000000000000000000000000000000000000000000000000000000008152600401610be591906114da565b60405180910390fd5b610bfa60008383610dd5565b5050565b600073ffffffffffffffffffffffffffffffffffffffff168473ffffffffffffffffffffffffffffffffffffffff1603610c705760006040517fe602df05000000000000000000000000000000000000000000000000000000008152600401610c6791906114da565b60405180910390fd5b600073ffffffffffffffffffffffffffffffffffffffff168373ffffffffffffffffffffffffffffffffffffffff1603610ce25760006040517f94280d62000000000000000000000000000000000000000000000000000000008152600401610cd991906114da565b60405180910390fd5b81600160008673ffffffffffffffffffffffffffffffffffffffff1673ffffffffffffffffffffffffffffffffffffffff16815260200190815260200160002060008573ffffffffffffffffffffffffffffffffffffffff1673ffffffffffffffffffffffffffffffffffffffff168152602001908152602001600020819055508015610dcf578273ffffffffffffffffffffffffffffffffffffffff168473ffffffffffffffffffffffffffffffffffffffff167f8c5be1e5ebec7d5bd14f71427d1e84f3dd0314c0f7b2291e5b200ac8c7c3b92584604051610dc69190611241565b60405180910390a35b50505050565b600073ffffffffffffffffffffffffffffffffffffffff168373ffffffffffffffffffffffffffffffffffffffff1603610e27578060026000828254610e1b9190611999565b92505081905550610efa565b60008060008573ffffffffffffffffffffffffffffffffffffffff1673ffffffffffffffffffffffffffffffffffffffff16815260200190815260200160002054905081811015610eb3578381836040517fe450d38c000000000000000000000000000000000000000000000000000000008152600401610eaa93929190611791565b60405180910390fd5b8181036000808673ffffffffffffffffffffffffffffffffffffffff1673ffffffffffffffffffffffffffffffffffffffff16815260200190815260200160002081905550505b600073ffffffffffffffffffffffffffffffffffffffff168273ffffffffffffffffffffffffffffffffffffffff1603610f435780600260008282540392505081905550610f90565b806000808473ffffffffffffffffffffffffffffffffffffffff1673ffffffffffffffffffffffffffffffffffffffff168152602001908152602001600020600082825401925050819055505b8173ffffffffffffffffffffffffffffffffffffffff168373ffffffffffffffffffffffffffffffffffffffff167fddf252ad1be2c89b69c2b068fc378daa952ba7f163c4a11628f55a4df523b3ef83604051610fed9190611241565b60405180910390a3505050565b60008060006041845114611043576040517f08c379a000000000000000000000000000000000000000000000000000000000815260040161103a90611a19565b60405180910390fd5b6020840151925060408401519150606084015160001a90509193909250565b600081519050919050565b600082825260208201905092915050565b60005b8381101561109c578082015181840152602081019050611081565b60008484015250505050565b6000601f19601f8301169050919050565b60006110c482611062565b6110ce818561106d565b93506110de81856020860161107e565b6110e7816110a8565b840191505092915050565b6000602082019050818103600083015261110c81846110b9565b905092915050565b6000604051905090565b600080fd5b600080fd5b600073ffffffffffffffffffffffffffffffffffffffff82169050919050565b600061115382611128565b9050919050565b61116381611148565b811461116e57600080fd5b50565b6000813590506111808161115a565b92915050565b6000819050919050565b61119981611186565b81146111a457600080fd5b50565b6000813590506111b681611190565b92915050565b600080604083850312156111d3576111d261111e565b5b60006111e185828601611171565b92505060206111f2858286016111a7565b9150509250929050565b60008115159050919050565b611211816111fc565b82525050565b600060208201905061122c6000830184611208565b92915050565b61123b81611186565b82525050565b60006020820190506112566000830184611232565b92915050565b6000806000606084860312156112755761127461111e565b5b600061128386828701611171565b935050602061129486828701611171565b92505060406112a5868287016111a7565b9150509250925092565b600080fd5b600080fd5b7f4e487b7100000000000000000000000000000000000000000000000000000000600052604160045260246000fd5b6112f1826110a8565b810181811067ffffffffffffffff821117156113105761130f6112b9565b5b80604052505050565b6000611323611114565b905061132f82826112e8565b919050565b600067ffffffffffffffff82111561134f5761134e6112b9565b5b611358826110a8565b9050602081019050919050565b82818337600083830152505050565b600061138761138284611334565b611319565b9050828152602081018484840111156113a3576113a26112b4565b5b6113ae848285611365565b509392505050565b600082601f8301126113cb576113ca6112af565b5b81356113db848260208601611374565b91505092915050565b600080600080608085870312156113fe576113fd61111e565b5b600061140c87828801611171565b945050602061141d87828801611171565b935050604061142e878288016111a7565b925050606085013567ffffffffffffffff81111561144f5761144e611123565b5b61145b878288016113b6565b91505092959194509250565b600060ff82169050919050565b61147d81611467565b82525050565b60006020820190506114986000830184611474565b92915050565b6000602082840312156114b4576114b361111e565b5b60006114c284828501611171565b91505092915050565b6114d481611148565b82525050565b60006020820190506114ef60008301846114cb565b92915050565b6000806040838503121561150c5761150b61111e565b5b600061151a85828601611171565b925050602061152b85828601611171565b9150509250929050565b7f4e487b7100000000000000000000000000000000000000000000000000000000600052602260045260246000fd5b6000600282049050600182168061157c57607f821691505b60208210810361158f5761158e611535565b5b50919050565b7f496e76616c6964207369676e6174757265000000000000000000000000000000600082015250565b60006115cb60118361106d565b91506115d682611595565b602082019050919050565b600060208201905081810360008301526115fa816115be565b9050919050565b7f4f6e6c792052656c617965722063616e2065786563757465207468697320667560008201527f6e6374696f6e0000000000000000000000000000000000000000000000000000602082015250565b600061165d60268361106d565b915061166882611601565b604082019050919050565b6000602082019050818103600083015261168c81611650565b9050919050565b7f52656c6179657220697320616c72656164792073657400000000000000000000600082015250565b60006116c960168361106d565b91506116d482611693565b602082019050919050565b600060208201905081810360008301526116f8816116bc565b9050919050565b7f546f6b656e7320616c726561647920636c61696d65642062792074686973206160008201527f6464726573730000000000000000000000000000000000000000000000000000602082015250565b600061175b60268361106d565b9150611766826116ff565b604082019050919050565b6000602082019050818103600083015261178a8161174e565b9050919050565b60006060820190506117a660008301866114cb565b6117b36020830185611232565b6117c06040830184611232565b949350505050565b60008160601b9050919050565b60006117e0826117c8565b9050919050565b60006117f2826117d5565b9050919050565b61180a61180582611148565b6117e7565b82525050565b6000819050919050565b61182b61182682611186565b611810565b82525050565b600061183d82866117f9565b60148201915061184d82856117f9565b60148201915061185d828461181a565b602082019150819050949350505050565b600081905092915050565b7f19457468657265756d205369676e6564204d6573736167653a0a333200000000600082015250565b60006118af601c8361186e565b91506118ba82611879565b601c82019050919050565b6000819050919050565b6000819050919050565b6118ea6118e5826118c5565b6118cf565b82525050565b60006118fb826118a2565b915061190782846118d9565b60208201915081905092915050565b61191f816118c5565b82525050565b600060808201905061193a6000830187611916565b6119476020830186611474565b6119546040830185611916565b6119616060830184611916565b95945050505050565b7f4e487b7100000000000000000000000000000000000000000000000000000000600052601160045260246000fd5b60006119a482611186565b91506119af83611186565b92508282019050808211156119c7576119c661196a565b5b92915050565b7f496e76616c6964207369676e6174757265206c656e6774680000000000000000600082015250565b6000611a0360188361106d565b9150611a0e826119cd565b602082019050919050565b60006020820190508181036000830152611a32816119f6565b905091905056fea2646970667358221220eeec9b1f9f03dc649244a470c97f16288c18ba0e8eafddf55161271445c8b8eb64736f6c634300081b0033",
  "linkReferences": {},
  "deployedLinkReferences": {}
}