{
  "_format": "hh-sol-artifact-1",
  "contractName": "Relayer",
  "sourceName": "contracts/Relayer.sol",
  "abi": [
    {
      "inputs": [
        {
          "internalType": "address",
          "name": "_upcoinAddress",
          "type": "address"
        }
      ],
      "stateMutability": "nonpayable",
      "type": "constructor"
    },
    {
      "inputs": [
        {
          "internalType": "address",
          "name": "from",
          "type": "address"
        },
        {
          "internalType": "address",
          "name": "to",
          "type": "address"
        },
        {
          "internalType": "uint256",
          "name": "amount",
          "type": "uint256"
        },
        {
          "internalType": "bytes",
          "name": "signature",
          "type": "bytes"
        }
      ],
      "name": "relayTransfer",
      "outputs": [],
      "stateMutability": "nonpayable",
      "type": "function"
    },
    {
      "inputs": [],
      "name": "upcoin",
      "outputs": [
        {
          "internalType": "contract UPCoin",
          "name": "",
          "type": "address"
        }
      ],
      "stateMutability": "view",
      "type": "function"
    }
  ],
  "bytecode": "0x608060405234801561001057600080fd5b50604051610651380380610651833981810160405281019061003291906100db565b806000806101000a81548173ffffffffffffffffffffffffffffffffffffffff021916908373ffffffffffffffffffffffffffffffffffffffff16021790555050610108565b600080fd5b600073ffffffffffffffffffffffffffffffffffffffff82169050919050565b60006100a88261007d565b9050919050565b6100b88161009d565b81146100c357600080fd5b50565b6000815190506100d5816100af565b92915050565b6000602082840312156100f1576100f0610078565b5b60006100ff848285016100c6565b91505092915050565b61053a806101176000396000f3fe608060405234801561001057600080fd5b50600436106100365760003560e01c80633937dbc91461003b578063e0c898c914610057575b600080fd5b6100556004803603810190610050919061031e565b610075565b005b61005f61010c565b60405161006c9190610400565b60405180910390f35b60008054906101000a900473ffffffffffffffffffffffffffffffffffffffff1673ffffffffffffffffffffffffffffffffffffffff16632a8399df858585856040518563ffffffff1660e01b81526004016100d494939291906104b8565b600060405180830381600087803b1580156100ee57600080fd5b505af1158015610102573d6000803e3d6000fd5b5050505050505050565b60008054906101000a900473ffffffffffffffffffffffffffffffffffffffff1681565b6000604051905090565b600080fd5b600080fd5b600073ffffffffffffffffffffffffffffffffffffffff82169050919050565b600061016f82610144565b9050919050565b61017f81610164565b811461018a57600080fd5b50565b60008135905061019c81610176565b92915050565b6000819050919050565b6101b5816101a2565b81146101c057600080fd5b50565b6000813590506101d2816101ac565b92915050565b600080fd5b600080fd5b6000601f19601f8301169050919050565b7f4e487b7100000000000000000000000000000000000000000000000000000000600052604160045260246000fd5b61022b826101e2565b810181811067ffffffffffffffff8211171561024a576102496101f3565b5b80604052505050565b600061025d610130565b90506102698282610222565b919050565b600067ffffffffffffffff821115610289576102886101f3565b5b610292826101e2565b9050602081019050919050565b82818337600083830152505050565b60006102c16102bc8461026e565b610253565b9050828152602081018484840111156102dd576102dc6101dd565b5b6102e884828561029f565b509392505050565b600082601f830112610305576103046101d8565b5b81356103158482602086016102ae565b91505092915050565b600080600080608085870312156103385761033761013a565b5b60006103468782880161018d565b94505060206103578782880161018d565b9350506040610368878288016101c3565b925050606085013567ffffffffffffffff8111156103895761038861013f565b5b610395878288016102f0565b91505092959194509250565b6000819050919050565b60006103c66103c16103bc84610144565b6103a1565b610144565b9050919050565b60006103d8826103ab565b9050919050565b60006103ea826103cd565b9050919050565b6103fa816103df565b82525050565b600060208201905061041560008301846103f1565b92915050565b61042481610164565b82525050565b610433816101a2565b82525050565b600081519050919050565b600082825260208201905092915050565b60005b83811015610473578082015181840152602081019050610458565b60008484015250505050565b600061048a82610439565b6104948185610444565b93506104a4818560208601610455565b6104ad816101e2565b840191505092915050565b60006080820190506104cd600083018761041b565b6104da602083018661041b565b6104e7604083018561042a565b81810360608301526104f9818461047f565b90509594505050505056fea2646970667358221220f90d3d097b7cbf44551ecbb909890fbd4600341801ed502b9f436e0c80c99f7b64736f6c634300081b0033",
  "linkReferences": {},
  "deployedLinkReferences": {}
}