{
  "_format": "hh-sol-artifact-1",
  "contractName": "Relayer",
  "sourceName": "contracts/Relayer.sol",
  "abi": [
    {
      "inputs": [
        {
          "internalType": "address",
          "name": "_upcoinAddress",
          "type": "address"
        }
      ],
      "stateMutability": "nonpayable",
      "type": "constructor"
    },
    {
      "inputs": [
        {
          "internalType": "address",
          "name": "user",
          "type": "address"
        }
      ],
      "name": "relayClaimTokens",
      "outputs": [],
      "stateMutability": "nonpayable",
      "type": "function"
    },
    {
      "inputs": [
        {
          "internalType": "address",
          "name": "to",
          "type": "address"
        },
        {
          "internalType": "uint256",
          "name": "amount",
          "type": "uint256"
        }
      ],
      "name": "relayMint",
      "outputs": [],
      "stateMutability": "nonpayable",
      "type": "function"
    },
    {
      "inputs": [
        {
          "internalType": "address",
          "name": "from",
          "type": "address"
        },
        {
          "internalType": "address",
          "name": "to",
          "type": "address"
        },
        {
          "internalType": "uint256",
          "name": "amount",
          "type": "uint256"
        },
        {
          "internalType": "bytes",
          "name": "signature",
          "type": "bytes"
        }
      ],
      "name": "relayTransfer",
      "outputs": [],
      "stateMutability": "nonpayable",
      "type": "function"
    },
    {
      "inputs": [],
      "name": "upcoin",
      "outputs": [
        {
          "internalType": "contract UPCoin",
          "name": "",
          "type": "address"
        }
      ],
      "stateMutability": "view",
      "type": "function"
    }
  ],
  "bytecode": "0x608060405234801561001057600080fd5b5060405161086f38038061086f833981810160405281019061003291906100db565b806000806101000a81548173ffffffffffffffffffffffffffffffffffffffff021916908373ffffffffffffffffffffffffffffffffffffffff16021790555050610108565b600080fd5b600073ffffffffffffffffffffffffffffffffffffffff82169050919050565b60006100a88261007d565b9050919050565b6100b88161009d565b81146100c357600080fd5b50565b6000815190506100d5816100af565b92915050565b6000602082840312156100f1576100f0610078565b5b60006100ff848285016100c6565b91505092915050565b610758806101176000396000f3fe608060405234801561001057600080fd5b506004361061004c5760003560e01c80633937dbc9146100515780634ec694461461006d5780636ac8728c14610089578063e0c898c9146100a5575b600080fd5b61006b6004803603810190610066919061048b565b6100c3565b005b6100876004803603810190610082919061050e565b61015a565b005b6100a3600480360381019061009e919061053b565b6101e8565b005b6100ad610279565b6040516100ba91906105da565b60405180910390f35b60008054906101000a900473ffffffffffffffffffffffffffffffffffffffff1673ffffffffffffffffffffffffffffffffffffffff16632a8399df858585856040518563ffffffff1660e01b81526004016101229493929190610692565b600060405180830381600087803b15801561013c57600080fd5b505af1158015610150573d6000803e3d6000fd5b5050505050505050565b60008054906101000a900473ffffffffffffffffffffffffffffffffffffffff1673ffffffffffffffffffffffffffffffffffffffff1663df8de3e7826040518263ffffffff1660e01b81526004016101b391906106de565b600060405180830381600087803b1580156101cd57600080fd5b505af11580156101e1573d6000803e3d6000fd5b5050505050565b60008054906101000a900473ffffffffffffffffffffffffffffffffffffffff1673ffffffffffffffffffffffffffffffffffffffff166340c10f1983836040518363ffffffff1660e01b81526004016102439291906106f9565b600060405180830381600087803b15801561025d57600080fd5b505af1158015610271573d6000803e3d6000fd5b505050505050565b60008054906101000a900473ffffffffffffffffffffffffffffffffffffffff1681565b6000604051905090565b600080fd5b600080fd5b600073ffffffffffffffffffffffffffffffffffffffff82169050919050565b60006102dc826102b1565b9050919050565b6102ec816102d1565b81146102f757600080fd5b50565b600081359050610309816102e3565b92915050565b6000819050919050565b6103228161030f565b811461032d57600080fd5b50565b60008135905061033f81610319565b92915050565b600080fd5b600080fd5b6000601f19601f8301169050919050565b7f4e487b7100000000000000000000000000000000000000000000000000000000600052604160045260246000fd5b6103988261034f565b810181811067ffffffffffffffff821117156103b7576103b6610360565b5b80604052505050565b60006103ca61029d565b90506103d6828261038f565b919050565b600067ffffffffffffffff8211156103f6576103f5610360565b5b6103ff8261034f565b9050602081019050919050565b82818337600083830152505050565b600061042e610429846103db565b6103c0565b90508281526020810184848401111561044a5761044961034a565b5b61045584828561040c565b509392505050565b600082601f83011261047257610471610345565b5b813561048284826020860161041b565b91505092915050565b600080600080608085870312156104a5576104a46102a7565b5b60006104b3878288016102fa565b94505060206104c4878288016102fa565b93505060406104d587828801610330565b925050606085013567ffffffffffffffff8111156104f6576104f56102ac565b5b6105028782880161045d565b91505092959194509250565b600060208284031215610524576105236102a7565b5b6000610532848285016102fa565b91505092915050565b60008060408385031215610552576105516102a7565b5b6000610560858286016102fa565b925050602061057185828601610330565b9150509250929050565b6000819050919050565b60006105a061059b610596846102b1565b61057b565b6102b1565b9050919050565b60006105b282610585565b9050919050565b60006105c4826105a7565b9050919050565b6105d4816105b9565b82525050565b60006020820190506105ef60008301846105cb565b92915050565b6105fe816102d1565b82525050565b61060d8161030f565b82525050565b600081519050919050565b600082825260208201905092915050565b60005b8381101561064d578082015181840152602081019050610632565b60008484015250505050565b600061066482610613565b61066e818561061e565b935061067e81856020860161062f565b6106878161034f565b840191505092915050565b60006080820190506106a760008301876105f5565b6106b460208301866105f5565b6106c16040830185610604565b81810360608301526106d38184610659565b905095945050505050565b60006020820190506106f360008301846105f5565b92915050565b600060408201905061070e60008301856105f5565b61071b6020830184610604565b939250505056fea2646970667358221220ebbd1e16cdec1ff40d894fd8176d1363b021c16e49239e6f10a3852541ee935b64736f6c634300081b0033",
  "linkReferences": {},
  "deployedLinkReferences": {}
}